{
  "contractName": "BridgeTokenTransfer",
  "abi": [
    {
      "anonymous": false,
      "inputs": [
        {
          "indexed": true,
          "internalType": "address",
          "name": "previousOwner",
          "type": "address"
        },
        {
          "indexed": true,
          "internalType": "address",
          "name": "newOwner",
          "type": "address"
        }
      ],
      "name": "OwnershipTransferred",
      "type": "event"
    },
    {
      "anonymous": false,
      "inputs": [
        {
          "indexed": true,
          "internalType": "address",
          "name": "sender",
          "type": "address"
        },
        {
          "indexed": true,
          "internalType": "address",
          "name": "destination",
          "type": "address"
        },
        {
          "indexed": false,
          "internalType": "uint256",
          "name": "amount",
          "type": "uint256"
        },
        {
          "indexed": false,
          "internalType": "address",
          "name": "token",
          "type": "address"
        }
      ],
      "name": "Transfer",
      "type": "event"
    },
    {
      "inputs": [],
      "name": "feeRate",
      "outputs": [
        {
          "internalType": "uint256",
          "name": "",
          "type": "uint256"
        }
      ],
      "stateMutability": "view",
      "type": "function",
      "constant": true
    },
    {
      "inputs": [],
      "name": "owner",
      "outputs": [
        {
          "internalType": "address",
          "name": "",
          "type": "address"
        }
      ],
      "stateMutability": "view",
      "type": "function",
      "constant": true
    },
    {
      "inputs": [],
      "name": "renounceOwnership",
      "outputs": [],
      "stateMutability": "nonpayable",
      "type": "function"
    },
    {
      "inputs": [
        {
          "internalType": "address",
          "name": "newOwner",
          "type": "address"
        }
      ],
      "name": "transferOwnership",
      "outputs": [],
      "stateMutability": "nonpayable",
      "type": "function"
    },
    {
      "inputs": [
        {
          "internalType": "address",
          "name": "_owner",
          "type": "address"
        },
        {
          "internalType": "uint256",
          "name": "_amount",
          "type": "uint256"
        },
        {
          "internalType": "contract IERC20",
          "name": "_token",
          "type": "address"
        }
      ],
      "name": "canTransfer",
      "outputs": [
        {
          "internalType": "bool",
          "name": "",
          "type": "bool"
        }
      ],
      "stateMutability": "view",
      "type": "function",
      "constant": true
    },
    {
      "inputs": [
        {
          "internalType": "uint256",
          "name": "_amount",
          "type": "uint256"
        },
        {
          "internalType": "address",
          "name": "_destinationAddress",
          "type": "address"
        },
        {
          "internalType": "contract IERC20",
          "name": "_token",
          "type": "address"
        }
      ],
      "name": "transfer",
      "outputs": [],
      "stateMutability": "nonpayable",
      "type": "function"
    },
    {
      "inputs": [
        {
          "internalType": "uint256",
          "name": "_feeRateBasisPoints",
          "type": "uint256"
        }
      ],
      "name": "setFeeRate",
      "outputs": [],
      "stateMutability": "nonpayable",
      "type": "function"
    }
  ],
  "bytecode": "0x60806040526103e8600255348015610015575f80fd5b5061003261002761003e60201b60201c565b61004560201b60201c565b60018081905550610106565b5f33905090565b5f805f9054906101000a900473ffffffffffffffffffffffffffffffffffffffff169050815f806101000a81548173ffffffffffffffffffffffffffffffffffffffff021916908373ffffffffffffffffffffffffffffffffffffffff1602179055508173ffffffffffffffffffffffffffffffffffffffff168173ffffffffffffffffffffffffffffffffffffffff167f8be0079c531659141344cd1fd0a4f28419497f9722a3daafe3b4186f6b6457e060405160405180910390a35050565b610fe8806101135f395ff3fe608060405234801561000f575f80fd5b506004361061007b575f3560e01c80638da5cb5b116100595780638da5cb5b146100d5578063978bbdb9146100f3578063ccb570e314610111578063f2fde38b1461012d5761007b565b806345596e2e1461007f578063715018a61461009b57806381823a6a146100a5575b5f80fd5b6100996004803603810190610094919061080e565b610149565b005b6100a361015b565b005b6100bf60048036038101906100ba91906108ce565b61016e565b6040516100cc9190610938565b60405180910390f35b6100dd6101f5565b6040516100ea9190610960565b60405180910390f35b6100fb61021c565b6040516101089190610988565b60405180910390f35b61012b600480360381019061012691906109a1565b610222565b005b610147600480360381019061014291906109f1565b610578565b005b6101516105fa565b8060028190555050565b6101636105fa565b61016c5f610678565b565b5f828273ffffffffffffffffffffffffffffffffffffffff1663dd62ed3e86306040518363ffffffff1660e01b81526004016101ab929190610a1c565b602060405180830381865afa1580156101c6573d5f803e3d5ffd5b505050506040513d601f19601f820116820180604052508101906101ea9190610a57565b101590509392505050565b5f805f9054906101000a900473ffffffffffffffffffffffffffffffffffffffff16905090565b60025481565b61022a610739565b61023c610235610788565b848361016e565b61027b576040517f08c379a000000000000000000000000000000000000000000000000000000000815260040161027290610b02565b60405180910390fd5b5f6102a56127106102976002548761078f90919063ffffffff16565b6107a490919063ffffffff16565b90505f6102bb82866107b990919063ffffffff16565b90508273ffffffffffffffffffffffffffffffffffffffff166323b872dd6102e1610788565b30886040518463ffffffff1660e01b815260040161030193929190610b20565b6020604051808303815f875af115801561031d573d5f803e3d5ffd5b505050506040513d601f19601f820116820180604052508101906103419190610b7f565b610380576040517f08c379a000000000000000000000000000000000000000000000000000000000815260040161037790610c1a565b60405180910390fd5b8273ffffffffffffffffffffffffffffffffffffffff1663a9059cbb6103a46101f5565b846040518363ffffffff1660e01b81526004016103c2929190610c38565b6020604051808303815f875af11580156103de573d5f803e3d5ffd5b505050506040513d601f19601f820116820180604052508101906104029190610b7f565b610441576040517f08c379a000000000000000000000000000000000000000000000000000000000815260040161043890610ca9565b60405180910390fd5b8273ffffffffffffffffffffffffffffffffffffffff1663a9059cbb85836040518363ffffffff1660e01b815260040161047c929190610c38565b6020604051808303815f875af1158015610498573d5f803e3d5ffd5b505050506040513d601f19601f820116820180604052508101906104bc9190610b7f565b6104fb576040517f08c379a00000000000000000000000000000000000000000000000000000000081526004016104f290610d11565b60405180910390fd5b8373ffffffffffffffffffffffffffffffffffffffff1661051a610788565b73ffffffffffffffffffffffffffffffffffffffff167f5f2147fb558c977441fbdfebcf8cd5776606adc8da5ff95566fc2a4137e54d138386604051610561929190610d2f565b60405180910390a350506105736107ce565b505050565b6105806105fa565b5f73ffffffffffffffffffffffffffffffffffffffff168173ffffffffffffffffffffffffffffffffffffffff16036105ee576040517f08c379a00000000000000000000000000000000000000000000000000000000081526004016105e590610dc6565b60405180910390fd5b6105f781610678565b50565b610602610788565b73ffffffffffffffffffffffffffffffffffffffff166106206101f5565b73ffffffffffffffffffffffffffffffffffffffff1614610676576040517f08c379a000000000000000000000000000000000000000000000000000000000815260040161066d90610e2e565b60405180910390fd5b565b5f805f9054906101000a900473ffffffffffffffffffffffffffffffffffffffff169050815f806101000a81548173ffffffffffffffffffffffffffffffffffffffff021916908373ffffffffffffffffffffffffffffffffffffffff1602179055508173ffffffffffffffffffffffffffffffffffffffff168173ffffffffffffffffffffffffffffffffffffffff167f8be0079c531659141344cd1fd0a4f28419497f9722a3daafe3b4186f6b6457e060405160405180910390a35050565b60026001540361077e576040517f08c379a000000000000000000000000000000000000000000000000000000000815260040161077590610e96565b60405180910390fd5b6002600181905550565b5f33905090565b5f818361079c9190610ee1565b905092915050565b5f81836107b19190610f4f565b905092915050565b5f81836107c69190610f7f565b905092915050565b60018081905550565b5f80fd5b5f819050919050565b6107ed816107db565b81146107f7575f80fd5b50565b5f81359050610808816107e4565b92915050565b5f60208284031215610823576108226107d7565b5b5f610830848285016107fa565b91505092915050565b5f73ffffffffffffffffffffffffffffffffffffffff82169050919050565b5f61086282610839565b9050919050565b61087281610858565b811461087c575f80fd5b50565b5f8135905061088d81610869565b92915050565b5f61089d82610858565b9050919050565b6108ad81610893565b81146108b7575f80fd5b50565b5f813590506108c8816108a4565b92915050565b5f805f606084860312156108e5576108e46107d7565b5b5f6108f28682870161087f565b9350506020610903868287016107fa565b9250506040610914868287016108ba565b9150509250925092565b5f8115159050919050565b6109328161091e565b82525050565b5f60208201905061094b5f830184610929565b92915050565b61095a81610858565b82525050565b5f6020820190506109735f830184610951565b92915050565b610982816107db565b82525050565b5f60208201905061099b5f830184610979565b92915050565b5f805f606084860312156109b8576109b76107d7565b5b5f6109c5868287016107fa565b93505060206109d68682870161087f565b92505060406109e7868287016108ba565b9150509250925092565b5f60208284031215610a0657610a056107d7565b5b5f610a138482850161087f565b91505092915050565b5f604082019050610a2f5f830185610951565b610a3c6020830184610951565b9392505050565b5f81519050610a51816107e4565b92915050565b5f60208284031215610a6c57610a6b6107d7565b5b5f610a7984828501610a43565b91505092915050565b5f82825260208201905092915050565b7f436f6e7472616374206e6f7420617070726f76656420746f207472616e7366655f8201527f7220656e6f75676820746f6b656e730000000000000000000000000000000000602082015250565b5f610aec602f83610a82565b9150610af782610a92565b604082019050919050565b5f6020820190508181035f830152610b1981610ae0565b9050919050565b5f606082019050610b335f830186610951565b610b406020830185610951565b610b4d6040830184610979565b949350505050565b610b5e8161091e565b8114610b68575f80fd5b50565b5f81519050610b7981610b55565b92915050565b5f60208284031215610b9457610b936107d7565b5b5f610ba184828501610b6b565b91505092915050565b7f546f6b656e207472616e7366657220746f20636f6e7472616374206661696c655f8201527f6400000000000000000000000000000000000000000000000000000000000000602082015250565b5f610c04602183610a82565b9150610c0f82610baa565b604082019050919050565b5f6020820190508181035f830152610c3181610bf8565b9050919050565b5f604082019050610c4b5f830185610951565b610c586020830184610979565b9392505050565b7f466565207472616e73666572206661696c6564000000000000000000000000005f82015250565b5f610c93601383610a82565b9150610c9e82610c5f565b602082019050919050565b5f6020820190508181035f830152610cc081610c87565b9050919050565b7f44657374696e6174696f6e207472616e73666572206661696c656400000000005f82015250565b5f610cfb601b83610a82565b9150610d0682610cc7565b602082019050919050565b5f6020820190508181035f830152610d2881610cef565b9050919050565b5f604082019050610d425f830185610979565b610d4f6020830184610951565b9392505050565b7f4f776e61626c653a206e6577206f776e657220697320746865207a65726f20615f8201527f6464726573730000000000000000000000000000000000000000000000000000602082015250565b5f610db0602683610a82565b9150610dbb82610d56565b604082019050919050565b5f6020820190508181035f830152610ddd81610da4565b9050919050565b7f4f776e61626c653a2063616c6c6572206973206e6f7420746865206f776e65725f82015250565b5f610e18602083610a82565b9150610e2382610de4565b602082019050919050565b5f6020820190508181035f830152610e4581610e0c565b9050919050565b7f5265656e7472616e637947756172643a207265656e7472616e742063616c6c005f82015250565b5f610e80601f83610a82565b9150610e8b82610e4c565b602082019050919050565b5f6020820190508181035f830152610ead81610e74565b9050919050565b7f4e487b71000000000000000000000000000000000000000000000000000000005f52601160045260245ffd5b5f610eeb826107db565b9150610ef6836107db565b9250828202610f04816107db565b91508282048414831517610f1b57610f1a610eb4565b5b5092915050565b7f4e487b71000000000000000000000000000000000000000000000000000000005f52601260045260245ffd5b5f610f59826107db565b9150610f64836107db565b925082610f7457610f73610f22565b5b828204905092915050565b5f610f89826107db565b9150610f94836107db565b9250828203905081811115610fac57610fab610eb4565b5b9291505056fea264697066735822122093fafbb0e29bf9dd317d8f125c7f8f82d5bcf7a8d394b9b09ce74e1539b0864964736f6c63430008150033",
  "immutableReferences": {},
  "source": "// SPDX-License-Identifier: MIT\npragma solidity >=0.4.22 <0.9.0;\n\nimport \"@openzeppelin/contracts/token/ERC20/IERC20.sol\";\nimport \"@openzeppelin/contracts/access/Ownable.sol\";\nimport \"@openzeppelin/contracts/security/ReentrancyGuard.sol\";\nimport \"@openzeppelin/contracts/utils/math/SafeMath.sol\";\n\ncontract BridgeTokenTransfer is Ownable, ReentrancyGuard {\n    using SafeMath for uint256;\n    uint256 public feeRate = 1000; // 1000 means 0.1% fee (1/1000)\n\n    event Transfer(address indexed sender, address indexed destination, uint256 amount, address token);\n\n    function canTransfer(address _owner, uint256 _amount, IERC20 _token) public view returns (bool) {\n        return _token.allowance(_owner, address(this)) >= _amount;\n    }\n\n    function transfer(uint256 _amount, address _destinationAddress, IERC20 _token) external nonReentrant {\n        require(canTransfer(_msgSender(), _amount, _token), \"Contract not approved to transfer enough tokens\");\n\n        uint256 feeAmount = _amount.mul(feeRate).div(10000);\n        uint256 transferAmount = _amount.sub(feeAmount);\n\n        require(_token.transferFrom(_msgSender(), address(this), _amount), \"Token transfer to contract failed\");\n\n        require(_token.transfer(owner(), feeAmount), \"Fee transfer failed\");\n\n        require(_token.transfer(_destinationAddress, transferAmount), \"Destination transfer failed\");\n\n        emit Transfer(_msgSender(), _destinationAddress, transferAmount, address(_token));\n    }\n\n    function setFeeRate(uint256 _feeRateBasisPoints) external onlyOwner {\n        feeRate = _feeRateBasisPoints;\n    }\n}\n",
  "sourcePath": "/Users/raphaeletang-sale/Projects/ChainBrary/SmartContracts/contracts/BridgeTokenTransfer.sol",
  "compiler": {
    "name": "solc",
    "version": "0.8.21+commit.d9974bed.Emscripten.clang"
  },
  "schemaVersion": "3.4.16",
  "updatedAt": "2023-10-11T01:27:13.505Z",
  "networkType": "ethereum",
  "devdoc": {
    "kind": "dev",
    "methods": {
      "owner()": {
        "details": "Returns the address of the current owner."
      },
      "renounceOwnership()": {
        "details": "Leaves the contract without owner. It will not be possible to call `onlyOwner` functions. Can only be called by the current owner. NOTE: Renouncing ownership will leave the contract without an owner, thereby disabling any functionality that is only available to the owner."
      },
      "transferOwnership(address)": {
        "details": "Transfers ownership of the contract to a new account (`newOwner`). Can only be called by the current owner."
      }
    },
    "version": 1
  },
  "userdoc": {
    "kind": "user",
    "methods": {},
    "version": 1
  }
}