{
  "contractName": "CertifiedProfiles",
  "abi": [
    {
      "anonymous": false,
      "inputs": [
        {
          "indexed": true,
          "internalType": "address",
          "name": "previousOwner",
          "type": "address"
        },
        {
          "indexed": true,
          "internalType": "address",
          "name": "newOwner",
          "type": "address"
        }
      ],
      "name": "OwnershipTransferred",
      "type": "event"
    },
    {
      "anonymous": false,
      "inputs": [
        {
          "indexed": true,
          "internalType": "address",
          "name": "userAddress",
          "type": "address"
        },
        {
          "indexed": false,
          "internalType": "string",
          "name": "username",
          "type": "string"
        },
        {
          "indexed": false,
          "internalType": "string",
          "name": "imgUrl",
          "type": "string"
        },
        {
          "indexed": false,
          "internalType": "string",
          "name": "description",
          "type": "string"
        },
        {
          "indexed": false,
          "internalType": "uint256",
          "name": "expirationDate",
          "type": "uint256"
        }
      ],
      "name": "ProfileAdded",
      "type": "event"
    },
    {
      "inputs": [],
      "name": "owner",
      "outputs": [
        {
          "internalType": "address",
          "name": "",
          "type": "address"
        }
      ],
      "stateMutability": "view",
      "type": "function",
      "constant": true
    },
    {
      "inputs": [
        {
          "internalType": "address",
          "name": "",
          "type": "address"
        }
      ],
      "name": "profiles",
      "outputs": [
        {
          "internalType": "address",
          "name": "userAddress",
          "type": "address"
        },
        {
          "internalType": "string",
          "name": "username",
          "type": "string"
        },
        {
          "internalType": "string",
          "name": "imgUrl",
          "type": "string"
        },
        {
          "internalType": "string",
          "name": "description",
          "type": "string"
        },
        {
          "internalType": "uint256",
          "name": "expirationDate",
          "type": "uint256"
        }
      ],
      "stateMutability": "view",
      "type": "function",
      "constant": true
    },
    {
      "inputs": [],
      "name": "renounceOwnership",
      "outputs": [],
      "stateMutability": "nonpayable",
      "type": "function"
    },
    {
      "inputs": [
        {
          "internalType": "address",
          "name": "newOwner",
          "type": "address"
        }
      ],
      "name": "transferOwnership",
      "outputs": [],
      "stateMutability": "nonpayable",
      "type": "function"
    },
    {
      "inputs": [
        {
          "internalType": "string",
          "name": "_username",
          "type": "string"
        },
        {
          "internalType": "string",
          "name": "_imgUrl",
          "type": "string"
        },
        {
          "internalType": "string",
          "name": "_description",
          "type": "string"
        }
      ],
      "name": "addProfile",
      "outputs": [],
      "stateMutability": "nonpayable",
      "type": "function"
    },
    {
      "inputs": [],
      "name": "extendExpiredDate",
      "outputs": [],
      "stateMutability": "nonpayable",
      "type": "function"
    },
    {
      "inputs": [
        {
          "internalType": "string",
          "name": "_username",
          "type": "string"
        },
        {
          "internalType": "string",
          "name": "_description",
          "type": "string"
        }
      ],
      "name": "updateProfile",
      "outputs": [],
      "stateMutability": "nonpayable",
      "type": "function"
    },
    {
      "inputs": [
        {
          "internalType": "address",
          "name": "_address",
          "type": "address"
        }
      ],
      "name": "getProfile",
      "outputs": [
        {
          "internalType": "address",
          "name": "",
          "type": "address"
        },
        {
          "internalType": "string",
          "name": "",
          "type": "string"
        },
        {
          "internalType": "string",
          "name": "",
          "type": "string"
        },
        {
          "internalType": "uint256",
          "name": "",
          "type": "uint256"
        }
      ],
      "stateMutability": "view",
      "type": "function",
      "constant": true
    },
    {
      "inputs": [
        {
          "internalType": "address",
          "name": "_address",
          "type": "address"
        }
      ],
      "name": "deleteProfileByAddress",
      "outputs": [],
      "stateMutability": "nonpayable",
      "type": "function"
    },
    {
      "inputs": [],
      "name": "deleteMyProfile",
      "outputs": [],
      "stateMutability": "nonpayable",
      "type": "function"
    }
  ],
  "bytecode": "0x608060405234801561000f575f80fd5b5061002c61002161003160201b60201c565b61003860201b60201c565b6100f9565b5f33905090565b5f805f9054906101000a900473ffffffffffffffffffffffffffffffffffffffff169050815f806101000a81548173ffffffffffffffffffffffffffffffffffffffff021916908373ffffffffffffffffffffffffffffffffffffffff1602179055508173ffffffffffffffffffffffffffffffffffffffff168173ffffffffffffffffffffffffffffffffffffffff167f8be0079c531659141344cd1fd0a4f28419497f9722a3daafe3b4186f6b6457e060405160405180910390a35050565b611b77806101065f395ff3fe608060405234801561000f575f80fd5b506004361061009c575f3560e01c8063c15c75e911610064578063c15c75e914610139578063c9d3cc6a14610143578063c9fc92931461015f578063d909bf0e1461017b578063f2fde38b146101975761009c565b80630f53a470146100a057806343f3db45146100d3578063715018a6146100dd5780638da5cb5b146100e7578063bbe1562714610105575b5f80fd5b6100ba60048036038101906100b591906111a0565b6101b3565b6040516100ca949392919061127c565b60405180910390f35b6100db6104ce565b005b6100e561064a565b005b6100ef61065d565b6040516100fc91906112cd565b60405180910390f35b61011f600480360381019061011a91906111a0565b610684565b6040516101309594939291906112e6565b60405180910390f35b610141610867565b005b61015d60048036038101906101589190611478565b6109a8565b005b610179600480360381019061017491906111a0565b610b30565b005b610195600480360381019061019091906114ee565b610ca7565b005b6101b160048036038101906101ac91906111a0565b610f15565b005b5f6060805f8073ffffffffffffffffffffffffffffffffffffffff1660015f6101da610f97565b73ffffffffffffffffffffffffffffffffffffffff1673ffffffffffffffffffffffffffffffffffffffff1681526020019081526020015f205f015f9054906101000a900473ffffffffffffffffffffffffffffffffffffffff1673ffffffffffffffffffffffffffffffffffffffff160361028b576040517f08c379a0000000000000000000000000000000000000000000000000000000008152600401610282906115dc565b60405180910390fd5b60015f8673ffffffffffffffffffffffffffffffffffffffff1673ffffffffffffffffffffffffffffffffffffffff1681526020019081526020015f205f015f9054906101000a900473ffffffffffffffffffffffffffffffffffffffff1660015f8773ffffffffffffffffffffffffffffffffffffffff1673ffffffffffffffffffffffffffffffffffffffff1681526020019081526020015f2060010160015f8873ffffffffffffffffffffffffffffffffffffffff1673ffffffffffffffffffffffffffffffffffffffff1681526020019081526020015f2060030160015f8973ffffffffffffffffffffffffffffffffffffffff1673ffffffffffffffffffffffffffffffffffffffff1681526020019081526020015f20600401548280546103b790611627565b80601f01602080910402602001604051908101604052809291908181526020018280546103e390611627565b801561042e5780601f106104055761010080835404028352916020019161042e565b820191905f5260205f20905b81548152906001019060200180831161041157829003601f168201915b5050505050925081805461044190611627565b80601f016020809104026020016040519081016040528092919081815260200182805461046d90611627565b80156104b85780601f1061048f576101008083540402835291602001916104b8565b820191905f5260205f20905b81548152906001019060200180831161049b57829003601f168201915b5050505050915093509350935093509193509193565b6104d6610f97565b73ffffffffffffffffffffffffffffffffffffffff1660015f6104f7610f97565b73ffffffffffffffffffffffffffffffffffffffff1673ffffffffffffffffffffffffffffffffffffffff1681526020019081526020015f205f015f9054906101000a900473ffffffffffffffffffffffffffffffffffffffff1673ffffffffffffffffffffffffffffffffffffffff16146105a8576040517f08c379a000000000000000000000000000000000000000000000000000000000815260040161059f906116a1565b60405180910390fd5b60015f6105b3610f97565b73ffffffffffffffffffffffffffffffffffffffff1673ffffffffffffffffffffffffffffffffffffffff1681526020019081526020015f205f8082015f6101000a81549073ffffffffffffffffffffffffffffffffffffffff0219169055600182015f61062191906110dd565b600282015f61063091906110dd565b600382015f61063f91906110dd565b600482015f90555050565b610652610f9e565b61065b5f61101c565b565b5f805f9054906101000a900473ffffffffffffffffffffffffffffffffffffffff16905090565b6001602052805f5260405f205f91509050805f015f9054906101000a900473ffffffffffffffffffffffffffffffffffffffff16908060010180546106c890611627565b80601f01602080910402602001604051908101604052809291908181526020018280546106f490611627565b801561073f5780601f106107165761010080835404028352916020019161073f565b820191905f5260205f20905b81548152906001019060200180831161072257829003601f168201915b50505050509080600201805461075490611627565b80601f016020809104026020016040519081016040528092919081815260200182805461078090611627565b80156107cb5780601f106107a2576101008083540402835291602001916107cb565b820191905f5260205f20905b8154815290600101906020018083116107ae57829003601f168201915b5050505050908060030180546107e090611627565b80601f016020809104026020016040519081016040528092919081815260200182805461080c90611627565b80156108575780601f1061082e57610100808354040283529160200191610857565b820191905f5260205f20905b81548152906001019060200180831161083a57829003601f168201915b5050505050908060040154905085565b61086f610f97565b73ffffffffffffffffffffffffffffffffffffffff1660015f610890610f97565b73ffffffffffffffffffffffffffffffffffffffff1673ffffffffffffffffffffffffffffffffffffffff1681526020019081526020015f205f015f9054906101000a900473ffffffffffffffffffffffffffffffffffffffff1673ffffffffffffffffffffffffffffffffffffffff1614610941576040517f08c379a0000000000000000000000000000000000000000000000000000000008152600401610938906116a1565b60405180910390fd5b5f6301e1338090505f814261095691906116ec565b90508060015f610964610f97565b73ffffffffffffffffffffffffffffffffffffffff1673ffffffffffffffffffffffffffffffffffffffff1681526020019081526020015f20600401819055505050565b6109b0610f97565b73ffffffffffffffffffffffffffffffffffffffff1660015f6109d1610f97565b73ffffffffffffffffffffffffffffffffffffffff1673ffffffffffffffffffffffffffffffffffffffff1681526020019081526020015f205f015f9054906101000a900473ffffffffffffffffffffffffffffffffffffffff1673ffffffffffffffffffffffffffffffffffffffff1614610a82576040517f08c379a0000000000000000000000000000000000000000000000000000000008152600401610a79906116a1565b60405180910390fd5b8160015f610a8e610f97565b73ffffffffffffffffffffffffffffffffffffffff1673ffffffffffffffffffffffffffffffffffffffff1681526020019081526020015f206001019081610ad691906118bc565b508060015f610ae3610f97565b73ffffffffffffffffffffffffffffffffffffffff1673ffffffffffffffffffffffffffffffffffffffff1681526020019081526020015f206003019081610b2b91906118bc565b505050565b5f73ffffffffffffffffffffffffffffffffffffffff1660015f610b52610f97565b73ffffffffffffffffffffffffffffffffffffffff1673ffffffffffffffffffffffffffffffffffffffff1681526020019081526020015f205f015f9054906101000a900473ffffffffffffffffffffffffffffffffffffffff1673ffffffffffffffffffffffffffffffffffffffff1603610c03576040517f08c379a0000000000000000000000000000000000000000000000000000000008152600401610bfa906115dc565b60405180910390fd5b610c0b610f9e565b60015f8273ffffffffffffffffffffffffffffffffffffffff1673ffffffffffffffffffffffffffffffffffffffff1681526020019081526020015f205f8082015f6101000a81549073ffffffffffffffffffffffffffffffffffffffff0219169055600182015f610c7d91906110dd565b600282015f610c8c91906110dd565b600382015f610c9b91906110dd565b600482015f9055505050565b610caf610f97565b73ffffffffffffffffffffffffffffffffffffffff1660015f610cd0610f97565b73ffffffffffffffffffffffffffffffffffffffff1673ffffffffffffffffffffffffffffffffffffffff1681526020019081526020015f205f015f9054906101000a900473ffffffffffffffffffffffffffffffffffffffff1673ffffffffffffffffffffffffffffffffffffffff1603610d81576040517f08c379a0000000000000000000000000000000000000000000000000000000008152600401610d78906119d5565b60405180910390fd5b5f6301e1338090505f8142610d9691906116ec565b9050610da0610f97565b73ffffffffffffffffffffffffffffffffffffffff167ff9c203e6503695c04f24cd109104808202f7b6a594b9fade0900b6166c4f36e486868685604051610deb94939291906119f3565b60405180910390a26040518060a00160405280610e06610f97565b73ffffffffffffffffffffffffffffffffffffffff1681526020018681526020018581526020018481526020018281525060015f610e42610f97565b73ffffffffffffffffffffffffffffffffffffffff1673ffffffffffffffffffffffffffffffffffffffff1681526020019081526020015f205f820151815f015f6101000a81548173ffffffffffffffffffffffffffffffffffffffff021916908373ffffffffffffffffffffffffffffffffffffffff1602179055506020820151816001019081610ed491906118bc565b506040820151816002019081610eea91906118bc565b506060820151816003019081610f0091906118bc565b50608082015181600401559050505050505050565b610f1d610f9e565b5f73ffffffffffffffffffffffffffffffffffffffff168173ffffffffffffffffffffffffffffffffffffffff1603610f8b576040517f08c379a0000000000000000000000000000000000000000000000000000000008152600401610f8290611abb565b60405180910390fd5b610f948161101c565b50565b5f33905090565b610fa6610f97565b73ffffffffffffffffffffffffffffffffffffffff16610fc461065d565b73ffffffffffffffffffffffffffffffffffffffff161461101a576040517f08c379a000000000000000000000000000000000000000000000000000000000815260040161101190611b23565b60405180910390fd5b565b5f805f9054906101000a900473ffffffffffffffffffffffffffffffffffffffff169050815f806101000a81548173ffffffffffffffffffffffffffffffffffffffff021916908373ffffffffffffffffffffffffffffffffffffffff1602179055508173ffffffffffffffffffffffffffffffffffffffff168173ffffffffffffffffffffffffffffffffffffffff167f8be0079c531659141344cd1fd0a4f28419497f9722a3daafe3b4186f6b6457e060405160405180910390a35050565b5080546110e990611627565b5f825580601f106110fa5750611117565b601f0160209004905f5260205f2090810190611116919061111a565b5b50565b5b80821115611131575f815f90555060010161111b565b5090565b5f604051905090565b5f80fd5b5f80fd5b5f73ffffffffffffffffffffffffffffffffffffffff82169050919050565b5f61116f82611146565b9050919050565b61117f81611165565b8114611189575f80fd5b50565b5f8135905061119a81611176565b92915050565b5f602082840312156111b5576111b461113e565b5b5f6111c28482850161118c565b91505092915050565b6111d481611165565b82525050565b5f81519050919050565b5f82825260208201905092915050565b5f5b838110156112115780820151818401526020810190506111f6565b5f8484015250505050565b5f601f19601f8301169050919050565b5f611236826111da565b61124081856111e4565b93506112508185602086016111f4565b6112598161121c565b840191505092915050565b5f819050919050565b61127681611264565b82525050565b5f60808201905061128f5f8301876111cb565b81810360208301526112a1818661122c565b905081810360408301526112b5818561122c565b90506112c4606083018461126d565b95945050505050565b5f6020820190506112e05f8301846111cb565b92915050565b5f60a0820190506112f95f8301886111cb565b818103602083015261130b818761122c565b9050818103604083015261131f818661122c565b90508181036060830152611333818561122c565b9050611342608083018461126d565b9695505050505050565b5f80fd5b5f80fd5b7f4e487b71000000000000000000000000000000000000000000000000000000005f52604160045260245ffd5b61138a8261121c565b810181811067ffffffffffffffff821117156113a9576113a8611354565b5b80604052505050565b5f6113bb611135565b90506113c78282611381565b919050565b5f67ffffffffffffffff8211156113e6576113e5611354565b5b6113ef8261121c565b9050602081019050919050565b828183375f83830152505050565b5f61141c611417846113cc565b6113b2565b90508281526020810184848401111561143857611437611350565b5b6114438482856113fc565b509392505050565b5f82601f83011261145f5761145e61134c565b5b813561146f84826020860161140a565b91505092915050565b5f806040838503121561148e5761148d61113e565b5b5f83013567ffffffffffffffff8111156114ab576114aa611142565b5b6114b78582860161144b565b925050602083013567ffffffffffffffff8111156114d8576114d7611142565b5b6114e48582860161144b565b9150509250929050565b5f805f606084860312156115055761150461113e565b5b5f84013567ffffffffffffffff81111561152257611521611142565b5b61152e8682870161144b565b935050602084013567ffffffffffffffff81111561154f5761154e611142565b5b61155b8682870161144b565b925050604084013567ffffffffffffffff81111561157c5761157b611142565b5b6115888682870161144b565b9150509250925092565b7f50726f66696c65206e6f7420666f756e640000000000000000000000000000005f82015250565b5f6115c66011836111e4565b91506115d182611592565b602082019050919050565b5f6020820190508181035f8301526115f3816115ba565b9050919050565b7f4e487b71000000000000000000000000000000000000000000000000000000005f52602260045260245ffd5b5f600282049050600182168061163e57607f821691505b602082108103611651576116506115fa565b5b50919050565b7f4e6f7420617574686f72697a65640000000000000000000000000000000000005f82015250565b5f61168b600e836111e4565b915061169682611657565b602082019050919050565b5f6020820190508181035f8301526116b88161167f565b9050919050565b7f4e487b71000000000000000000000000000000000000000000000000000000005f52601160045260245ffd5b5f6116f682611264565b915061170183611264565b9250828201905080821115611719576117186116bf565b5b92915050565b5f819050815f5260205f209050919050565b5f6020601f8301049050919050565b5f82821b905092915050565b5f6008830261177b7fffffffffffffffffffffffffffffffffffffffffffffffffffffffffffffffff82611740565b6117858683611740565b95508019841693508086168417925050509392505050565b5f819050919050565b5f6117c06117bb6117b684611264565b61179d565b611264565b9050919050565b5f819050919050565b6117d9836117a6565b6117ed6117e5826117c7565b84845461174c565b825550505050565b5f90565b6118016117f5565b61180c8184846117d0565b505050565b5b8181101561182f576118245f826117f9565b600181019050611812565b5050565b601f821115611874576118458161171f565b61184e84611731565b8101602085101561185d578190505b61187161186985611731565b830182611811565b50505b505050565b5f82821c905092915050565b5f6118945f1984600802611879565b1980831691505092915050565b5f6118ac8383611885565b9150826002028217905092915050565b6118c5826111da565b67ffffffffffffffff8111156118de576118dd611354565b5b6118e88254611627565b6118f3828285611833565b5f60209050601f831160018114611924575f8415611912578287015190505b61191c85826118a1565b865550611983565b601f1984166119328661171f565b5f5b8281101561195957848901518255600182019150602085019450602081019050611934565b868310156119765784890151611972601f891682611885565b8355505b6001600288020188555050505b505050505050565b7f50726f66696c6520616c726561647920657869737473000000000000000000005f82015250565b5f6119bf6016836111e4565b91506119ca8261198b565b602082019050919050565b5f6020820190508181035f8301526119ec816119b3565b9050919050565b5f6080820190508181035f830152611a0b818761122c565b90508181036020830152611a1f818661122c565b90508181036040830152611a33818561122c565b9050611a42606083018461126d565b95945050505050565b7f4f776e61626c653a206e6577206f776e657220697320746865207a65726f20615f8201527f6464726573730000000000000000000000000000000000000000000000000000602082015250565b5f611aa56026836111e4565b9150611ab082611a4b565b604082019050919050565b5f6020820190508181035f830152611ad281611a99565b9050919050565b7f4f776e61626c653a2063616c6c6572206973206e6f7420746865206f776e65725f82015250565b5f611b0d6020836111e4565b9150611b1882611ad9565b602082019050919050565b5f6020820190508181035f830152611b3a81611b01565b905091905056fea26469706673582212201a4303403856f91028d68fcb4ddd42318b58ffa69d972a1dfb57499fc556184d64736f6c63430008150033",
  "immutableReferences": {},
  "source": "// SPDX-License-Identifier: MIT\npragma solidity >=0.4.22 <0.9.0;\n\nimport \"@openzeppelin/contracts/access/Ownable.sol\";\n\ncontract CertifiedProfiles is Ownable {\n    event ProfileAdded(\n        address indexed userAddress,\n        string username,\n        string imgUrl,\n        string description,\n        uint256 expirationDate\n    );\n\n    struct ProfileStruct {\n        address userAddress;\n        string username;\n        string imgUrl;\n        string description;\n        uint256 expirationDate;\n    }\n\n    mapping(address => ProfileStruct) public profiles;\n\n    modifier profileNotNull() {\n        require(profiles[_msgSender()].userAddress != address(0), \"Profile not found\");\n        _;\n    }\n\n    modifier profileOwner() {\n        require(profiles[_msgSender()].userAddress == _msgSender(), \"Not authorized\");\n        _;\n    }\n\n    function addProfile(string memory _username, string memory _imgUrl, string memory _description) public {\n        require(profiles[_msgSender()].userAddress != _msgSender(), \"Profile already exists\");\n        uint256 oneYearInSeconds = 365 days;\n        uint256 expirationDate = block.timestamp + oneYearInSeconds;\n        emit ProfileAdded(_msgSender(), _username, _imgUrl, _description, expirationDate);\n        profiles[_msgSender()] = ProfileStruct(_msgSender(), _username, _imgUrl, _description, expirationDate);\n    }\n\n    function extendExpiredDate() public profileOwner {\n        uint256 oneYearInSeconds = 365 days;\n        uint256 expirationDate = block.timestamp + oneYearInSeconds;\n        profiles[_msgSender()].expirationDate = expirationDate;\n    }\n\n    function updateProfile(string memory _username, string memory _description) public profileOwner {\n        profiles[_msgSender()].username = _username;\n        profiles[_msgSender()].description = _description;\n    }\n\n    function getProfile(\n        address _address\n    ) public view profileNotNull returns (address, string memory, string memory, uint256) {\n        return (\n            profiles[_address].userAddress,\n            profiles[_address].username,\n            profiles[_address].description,\n            profiles[_address].expirationDate\n        );\n    }\n\n    function deleteProfileByAddress(address _address) public profileNotNull onlyOwner {\n        delete profiles[_address];\n    }\n\n    function deleteMyProfile() public profileOwner {\n        delete profiles[_msgSender()];\n    }\n}\n",
  "sourcePath": "/Users/raphaeletang-sale/Projects/ChainBrary/SmartContracts/contracts/CertifiedProfiles.sol",
  "compiler": {
    "name": "solc",
    "version": "0.8.21+commit.d9974bed.Emscripten.clang"
  },
  "schemaVersion": "3.4.16",
  "updatedAt": "2023-10-11T01:27:13.509Z",
  "networkType": "ethereum",
  "devdoc": {
    "kind": "dev",
    "methods": {
      "owner()": {
        "details": "Returns the address of the current owner."
      },
      "renounceOwnership()": {
        "details": "Leaves the contract without owner. It will not be possible to call `onlyOwner` functions. Can only be called by the current owner. NOTE: Renouncing ownership will leave the contract without an owner, thereby disabling any functionality that is only available to the owner."
      },
      "transferOwnership(address)": {
        "details": "Transfers ownership of the contract to a new account (`newOwner`). Can only be called by the current owner."
      }
    },
    "version": 1
  },
  "userdoc": {
    "kind": "user",
    "methods": {},
    "version": 1
  }
}