{
  "contractName": "ERC20FixedSupply",
  "abi": [
    {
      "inputs": [],
      "stateMutability": "nonpayable",
      "type": "constructor"
    },
    {
      "anonymous": false,
      "inputs": [
        {
          "indexed": true,
          "internalType": "address",
          "name": "owner",
          "type": "address"
        },
        {
          "indexed": true,
          "internalType": "address",
          "name": "spender",
          "type": "address"
        },
        {
          "indexed": false,
          "internalType": "uint256",
          "name": "value",
          "type": "uint256"
        }
      ],
      "name": "Approval",
      "type": "event"
    },
    {
      "anonymous": false,
      "inputs": [
        {
          "indexed": true,
          "internalType": "address",
          "name": "previousOwner",
          "type": "address"
        },
        {
          "indexed": true,
          "internalType": "address",
          "name": "newOwner",
          "type": "address"
        }
      ],
      "name": "OwnershipTransferred",
      "type": "event"
    },
    {
      "anonymous": false,
      "inputs": [
        {
          "indexed": true,
          "internalType": "address",
          "name": "from",
          "type": "address"
        },
        {
          "indexed": true,
          "internalType": "address",
          "name": "to",
          "type": "address"
        },
        {
          "indexed": false,
          "internalType": "uint256",
          "name": "value",
          "type": "uint256"
        }
      ],
      "name": "Transfer",
      "type": "event"
    },
    {
      "inputs": [
        {
          "internalType": "address",
          "name": "owner",
          "type": "address"
        },
        {
          "internalType": "address",
          "name": "spender",
          "type": "address"
        }
      ],
      "name": "allowance",
      "outputs": [
        {
          "internalType": "uint256",
          "name": "",
          "type": "uint256"
        }
      ],
      "stateMutability": "view",
      "type": "function",
      "constant": true
    },
    {
      "inputs": [
        {
          "internalType": "address",
          "name": "spender",
          "type": "address"
        },
        {
          "internalType": "uint256",
          "name": "amount",
          "type": "uint256"
        }
      ],
      "name": "approve",
      "outputs": [
        {
          "internalType": "bool",
          "name": "",
          "type": "bool"
        }
      ],
      "stateMutability": "nonpayable",
      "type": "function"
    },
    {
      "inputs": [
        {
          "internalType": "address",
          "name": "account",
          "type": "address"
        }
      ],
      "name": "balanceOf",
      "outputs": [
        {
          "internalType": "uint256",
          "name": "",
          "type": "uint256"
        }
      ],
      "stateMutability": "view",
      "type": "function",
      "constant": true
    },
    {
      "inputs": [],
      "name": "decimals",
      "outputs": [
        {
          "internalType": "uint8",
          "name": "",
          "type": "uint8"
        }
      ],
      "stateMutability": "view",
      "type": "function",
      "constant": true
    },
    {
      "inputs": [
        {
          "internalType": "address",
          "name": "spender",
          "type": "address"
        },
        {
          "internalType": "uint256",
          "name": "subtractedValue",
          "type": "uint256"
        }
      ],
      "name": "decreaseAllowance",
      "outputs": [
        {
          "internalType": "bool",
          "name": "",
          "type": "bool"
        }
      ],
      "stateMutability": "nonpayable",
      "type": "function"
    },
    {
      "inputs": [
        {
          "internalType": "address",
          "name": "spender",
          "type": "address"
        },
        {
          "internalType": "uint256",
          "name": "addedValue",
          "type": "uint256"
        }
      ],
      "name": "increaseAllowance",
      "outputs": [
        {
          "internalType": "bool",
          "name": "",
          "type": "bool"
        }
      ],
      "stateMutability": "nonpayable",
      "type": "function"
    },
    {
      "inputs": [],
      "name": "name",
      "outputs": [
        {
          "internalType": "string",
          "name": "",
          "type": "string"
        }
      ],
      "stateMutability": "view",
      "type": "function",
      "constant": true
    },
    {
      "inputs": [],
      "name": "owner",
      "outputs": [
        {
          "internalType": "address",
          "name": "",
          "type": "address"
        }
      ],
      "stateMutability": "view",
      "type": "function",
      "constant": true
    },
    {
      "inputs": [],
      "name": "renounceOwnership",
      "outputs": [],
      "stateMutability": "nonpayable",
      "type": "function"
    },
    {
      "inputs": [],
      "name": "symbol",
      "outputs": [
        {
          "internalType": "string",
          "name": "",
          "type": "string"
        }
      ],
      "stateMutability": "view",
      "type": "function",
      "constant": true
    },
    {
      "inputs": [],
      "name": "totalSupply",
      "outputs": [
        {
          "internalType": "uint256",
          "name": "",
          "type": "uint256"
        }
      ],
      "stateMutability": "view",
      "type": "function",
      "constant": true
    },
    {
      "inputs": [
        {
          "internalType": "address",
          "name": "to",
          "type": "address"
        },
        {
          "internalType": "uint256",
          "name": "amount",
          "type": "uint256"
        }
      ],
      "name": "transfer",
      "outputs": [
        {
          "internalType": "bool",
          "name": "",
          "type": "bool"
        }
      ],
      "stateMutability": "nonpayable",
      "type": "function"
    },
    {
      "inputs": [
        {
          "internalType": "address",
          "name": "from",
          "type": "address"
        },
        {
          "internalType": "address",
          "name": "to",
          "type": "address"
        },
        {
          "internalType": "uint256",
          "name": "amount",
          "type": "uint256"
        }
      ],
      "name": "transferFrom",
      "outputs": [
        {
          "internalType": "bool",
          "name": "",
          "type": "bool"
        }
      ],
      "stateMutability": "nonpayable",
      "type": "function"
    },
    {
      "inputs": [
        {
          "internalType": "address",
          "name": "newOwner",
          "type": "address"
        }
      ],
      "name": "transferOwnership",
      "outputs": [],
      "stateMutability": "nonpayable",
      "type": "function"
    }
  ],
  "bytecode": "0x608060405234801562000010575f80fd5b506040518060400160405280601081526020017f436861696e627261727920546f6b656e000000000000000000000000000000008152506040518060400160405280600281526020017f434200000000000000000000000000000000000000000000000000000000000081525081600390816200008e9190620005b2565b508060049081620000a09190620005b2565b505050620000c3620000b76200010d60201b60201c565b6200011460201b60201c565b6200010733620000d8620001d760201b60201c565b60ff16600a620000e9919062000813565b6404e3b29200620000fb919062000863565b620001df60201b60201c565b62000991565b5f33905090565b5f60055f9054906101000a900473ffffffffffffffffffffffffffffffffffffffff1690508160055f6101000a81548173ffffffffffffffffffffffffffffffffffffffff021916908373ffffffffffffffffffffffffffffffffffffffff1602179055508173ffffffffffffffffffffffffffffffffffffffff168173ffffffffffffffffffffffffffffffffffffffff167f8be0079c531659141344cd1fd0a4f28419497f9722a3daafe3b4186f6b6457e060405160405180910390a35050565b5f6012905090565b5f73ffffffffffffffffffffffffffffffffffffffff168273ffffffffffffffffffffffffffffffffffffffff160362000250576040517f08c379a000000000000000000000000000000000000000000000000000000000815260040162000247906200090b565b60405180910390fd5b620002635f83836200034460201b60201c565b8060025f8282546200027691906200092b565b92505081905550805f808473ffffffffffffffffffffffffffffffffffffffff1673ffffffffffffffffffffffffffffffffffffffff1681526020019081526020015f205f82825401925050819055508173ffffffffffffffffffffffffffffffffffffffff165f73ffffffffffffffffffffffffffffffffffffffff167fddf252ad1be2c89b69c2b068fc378daa952ba7f163c4a11628f55a4df523b3ef8360405162000325919062000976565b60405180910390a3620003405f83836200034960201b60201c565b5050565b505050565b505050565b5f81519050919050565b7f4e487b71000000000000000000000000000000000000000000000000000000005f52604160045260245ffd5b7f4e487b71000000000000000000000000000000000000000000000000000000005f52602260045260245ffd5b5f6002820490506001821680620003ca57607f821691505b602082108103620003e057620003df62000385565b5b50919050565b5f819050815f5260205f209050919050565b5f6020601f8301049050919050565b5f82821b905092915050565b5f60088302620004447fffffffffffffffffffffffffffffffffffffffffffffffffffffffffffffffff8262000407565b62000450868362000407565b95508019841693508086168417925050509392505050565b5f819050919050565b5f819050919050565b5f6200049a620004946200048e8462000468565b62000471565b62000468565b9050919050565b5f819050919050565b620004b5836200047a565b620004cd620004c482620004a1565b84845462000413565b825550505050565b5f90565b620004e3620004d5565b620004f0818484620004aa565b505050565b5b8181101562000517576200050b5f82620004d9565b600181019050620004f6565b5050565b601f82111562000566576200053081620003e6565b6200053b84620003f8565b810160208510156200054b578190505b620005636200055a85620003f8565b830182620004f5565b50505b505050565b5f82821c905092915050565b5f620005885f19846008026200056b565b1980831691505092915050565b5f620005a2838362000577565b9150826002028217905092915050565b620005bd826200034e565b67ffffffffffffffff811115620005d957620005d862000358565b5b620005e58254620003b2565b620005f28282856200051b565b5f60209050601f83116001811462000628575f841562000613578287015190505b6200061f858262000595565b8655506200068e565b601f1984166200063886620003e6565b5f5b8281101562000661578489015182556001820191506020850194506020810190506200063a565b868310156200068157848901516200067d601f89168262000577565b8355505b6001600288020188555050505b505050505050565b7f4e487b71000000000000000000000000000000000000000000000000000000005f52601160045260245ffd5b5f8160011c9050919050565b5f808291508390505b60018511156200072057808604811115620006f857620006f762000696565b5b6001851615620007085780820291505b80810290506200071885620006c3565b9450620006d8565b94509492505050565b5f826200073a57600190506200080c565b8162000749575f90506200080c565b81600181146200076257600281146200076d57620007a3565b60019150506200080c565b60ff84111562000782576200078162000696565b5b8360020a9150848211156200079c576200079b62000696565b5b506200080c565b5060208310610133831016604e8410600b8410161715620007dd5782820a905083811115620007d757620007d662000696565b5b6200080c565b620007ec8484846001620006cf565b9250905081840481111562000806576200080562000696565b5b81810290505b9392505050565b5f6200081f8262000468565b91506200082c8362000468565b92506200085b7fffffffffffffffffffffffffffffffffffffffffffffffffffffffffffffffff848462000729565b905092915050565b5f6200086f8262000468565b91506200087c8362000468565b92508282026200088c8162000468565b91508282048414831517620008a657620008a562000696565b5b5092915050565b5f82825260208201905092915050565b7f45524332303a206d696e7420746f20746865207a65726f2061646472657373005f82015250565b5f620008f3601f83620008ad565b91506200090082620008bd565b602082019050919050565b5f6020820190508181035f8301526200092481620008e5565b9050919050565b5f620009378262000468565b9150620009448362000468565b92508282019050808211156200095f576200095e62000696565b5b92915050565b620009708162000468565b82525050565b5f6020820190506200098b5f83018462000965565b92915050565b611564806200099f5f395ff3fe608060405234801561000f575f80fd5b50600436106100e8575f3560e01c8063715018a61161008a578063a457c2d711610064578063a457c2d71461024c578063a9059cbb1461027c578063dd62ed3e146102ac578063f2fde38b146102dc576100e8565b8063715018a6146102065780638da5cb5b1461021057806395d89b411461022e576100e8565b806323b872dd116100c657806323b872dd14610158578063313ce5671461018857806339509351146101a657806370a08231146101d6576100e8565b806306fdde03146100ec578063095ea7b31461010a57806318160ddd1461013a575b5f80fd5b6100f46102f8565b6040516101019190610d60565b60405180910390f35b610124600480360381019061011f9190610e11565b610388565b6040516101319190610e69565b60405180910390f35b6101426103aa565b60405161014f9190610e91565b60405180910390f35b610172600480360381019061016d9190610eaa565b6103b3565b60405161017f9190610e69565b60405180910390f35b6101906103e1565b60405161019d9190610f15565b60405180910390f35b6101c060048036038101906101bb9190610e11565b6103e9565b6040516101cd9190610e69565b60405180910390f35b6101f060048036038101906101eb9190610f2e565b61041f565b6040516101fd9190610e91565b60405180910390f35b61020e610464565b005b610218610477565b6040516102259190610f68565b60405180910390f35b61023661049f565b6040516102439190610d60565b60405180910390f35b61026660048036038101906102619190610e11565b61052f565b6040516102739190610e69565b60405180910390f35b61029660048036038101906102919190610e11565b6105a4565b6040516102a39190610e69565b60405180910390f35b6102c660048036038101906102c19190610f81565b6105c6565b6040516102d39190610e91565b60405180910390f35b6102f660048036038101906102f19190610f2e565b610648565b005b60606003805461030790610fec565b80601f016020809104026020016040519081016040528092919081815260200182805461033390610fec565b801561037e5780601f106103555761010080835404028352916020019161037e565b820191905f5260205f20905b81548152906001019060200180831161036157829003601f168201915b5050505050905090565b5f806103926106ca565b905061039f8185856106d1565b600191505092915050565b5f600254905090565b5f806103bd6106ca565b90506103ca858285610894565b6103d585858561091f565b60019150509392505050565b5f6012905090565b5f806103f36106ca565b905061041481858561040585896105c6565b61040f9190611049565b6106d1565b600191505092915050565b5f805f8373ffffffffffffffffffffffffffffffffffffffff1673ffffffffffffffffffffffffffffffffffffffff1681526020019081526020015f20549050919050565b61046c610b8b565b6104755f610c09565b565b5f60055f9054906101000a900473ffffffffffffffffffffffffffffffffffffffff16905090565b6060600480546104ae90610fec565b80601f01602080910402602001604051908101604052809291908181526020018280546104da90610fec565b80156105255780601f106104fc57610100808354040283529160200191610525565b820191905f5260205f20905b81548152906001019060200180831161050857829003601f168201915b5050505050905090565b5f806105396106ca565b90505f61054682866105c6565b90508381101561058b576040517f08c379a0000000000000000000000000000000000000000000000000000000008152600401610582906110ec565b60405180910390fd5b61059882868684036106d1565b60019250505092915050565b5f806105ae6106ca565b90506105bb81858561091f565b600191505092915050565b5f60015f8473ffffffffffffffffffffffffffffffffffffffff1673ffffffffffffffffffffffffffffffffffffffff1681526020019081526020015f205f8373ffffffffffffffffffffffffffffffffffffffff1673ffffffffffffffffffffffffffffffffffffffff1681526020019081526020015f2054905092915050565b610650610b8b565b5f73ffffffffffffffffffffffffffffffffffffffff168173ffffffffffffffffffffffffffffffffffffffff16036106be576040517f08c379a00000000000000000000000000000000000000000000000000000000081526004016106b59061117a565b60405180910390fd5b6106c781610c09565b50565b5f33905090565b5f73ffffffffffffffffffffffffffffffffffffffff168373ffffffffffffffffffffffffffffffffffffffff160361073f576040517f08c379a000000000000000000000000000000000000000000000000000000000815260040161073690611208565b60405180910390fd5b5f73ffffffffffffffffffffffffffffffffffffffff168273ffffffffffffffffffffffffffffffffffffffff16036107ad576040517f08c379a00000000000000000000000000000000000000000000000000000000081526004016107a490611296565b60405180910390fd5b8060015f8573ffffffffffffffffffffffffffffffffffffffff1673ffffffffffffffffffffffffffffffffffffffff1681526020019081526020015f205f8473ffffffffffffffffffffffffffffffffffffffff1673ffffffffffffffffffffffffffffffffffffffff1681526020019081526020015f20819055508173ffffffffffffffffffffffffffffffffffffffff168373ffffffffffffffffffffffffffffffffffffffff167f8c5be1e5ebec7d5bd14f71427d1e84f3dd0314c0f7b2291e5b200ac8c7c3b925836040516108879190610e91565b60405180910390a3505050565b5f61089f84846105c6565b90507fffffffffffffffffffffffffffffffffffffffffffffffffffffffffffffffff8114610919578181101561090b576040517f08c379a0000000000000000000000000000000000000000000000000000000008152600401610902906112fe565b60405180910390fd5b61091884848484036106d1565b5b50505050565b5f73ffffffffffffffffffffffffffffffffffffffff168373ffffffffffffffffffffffffffffffffffffffff160361098d576040517f08c379a00000000000000000000000000000000000000000000000000000000081526004016109849061138c565b60405180910390fd5b5f73ffffffffffffffffffffffffffffffffffffffff168273ffffffffffffffffffffffffffffffffffffffff16036109fb576040517f08c379a00000000000000000000000000000000000000000000000000000000081526004016109f29061141a565b60405180910390fd5b610a06838383610ccc565b5f805f8573ffffffffffffffffffffffffffffffffffffffff1673ffffffffffffffffffffffffffffffffffffffff1681526020019081526020015f2054905081811015610a89576040517f08c379a0000000000000000000000000000000000000000000000000000000008152600401610a80906114a8565b60405180910390fd5b8181035f808673ffffffffffffffffffffffffffffffffffffffff1673ffffffffffffffffffffffffffffffffffffffff1681526020019081526020015f2081905550815f808573ffffffffffffffffffffffffffffffffffffffff1673ffffffffffffffffffffffffffffffffffffffff1681526020019081526020015f205f82825401925050819055508273ffffffffffffffffffffffffffffffffffffffff168473ffffffffffffffffffffffffffffffffffffffff167fddf252ad1be2c89b69c2b068fc378daa952ba7f163c4a11628f55a4df523b3ef84604051610b729190610e91565b60405180910390a3610b85848484610cd1565b50505050565b610b936106ca565b73ffffffffffffffffffffffffffffffffffffffff16610bb1610477565b73ffffffffffffffffffffffffffffffffffffffff1614610c07576040517f08c379a0000000000000000000000000000000000000000000000000000000008152600401610bfe90611510565b60405180910390fd5b565b5f60055f9054906101000a900473ffffffffffffffffffffffffffffffffffffffff1690508160055f6101000a81548173ffffffffffffffffffffffffffffffffffffffff021916908373ffffffffffffffffffffffffffffffffffffffff1602179055508173ffffffffffffffffffffffffffffffffffffffff168173ffffffffffffffffffffffffffffffffffffffff167f8be0079c531659141344cd1fd0a4f28419497f9722a3daafe3b4186f6b6457e060405160405180910390a35050565b505050565b505050565b5f81519050919050565b5f82825260208201905092915050565b5f5b83811015610d0d578082015181840152602081019050610cf2565b5f8484015250505050565b5f601f19601f8301169050919050565b5f610d3282610cd6565b610d3c8185610ce0565b9350610d4c818560208601610cf0565b610d5581610d18565b840191505092915050565b5f6020820190508181035f830152610d788184610d28565b905092915050565b5f80fd5b5f73ffffffffffffffffffffffffffffffffffffffff82169050919050565b5f610dad82610d84565b9050919050565b610dbd81610da3565b8114610dc7575f80fd5b50565b5f81359050610dd881610db4565b92915050565b5f819050919050565b610df081610dde565b8114610dfa575f80fd5b50565b5f81359050610e0b81610de7565b92915050565b5f8060408385031215610e2757610e26610d80565b5b5f610e3485828601610dca565b9250506020610e4585828601610dfd565b9150509250929050565b5f8115159050919050565b610e6381610e4f565b82525050565b5f602082019050610e7c5f830184610e5a565b92915050565b610e8b81610dde565b82525050565b5f602082019050610ea45f830184610e82565b92915050565b5f805f60608486031215610ec157610ec0610d80565b5b5f610ece86828701610dca565b9350506020610edf86828701610dca565b9250506040610ef086828701610dfd565b9150509250925092565b5f60ff82169050919050565b610f0f81610efa565b82525050565b5f602082019050610f285f830184610f06565b92915050565b5f60208284031215610f4357610f42610d80565b5b5f610f5084828501610dca565b91505092915050565b610f6281610da3565b82525050565b5f602082019050610f7b5f830184610f59565b92915050565b5f8060408385031215610f9757610f96610d80565b5b5f610fa485828601610dca565b9250506020610fb585828601610dca565b9150509250929050565b7f4e487b71000000000000000000000000000000000000000000000000000000005f52602260045260245ffd5b5f600282049050600182168061100357607f821691505b60208210810361101657611015610fbf565b5b50919050565b7f4e487b71000000000000000000000000000000000000000000000000000000005f52601160045260245ffd5b5f61105382610dde565b915061105e83610dde565b92508282019050808211156110765761107561101c565b5b92915050565b7f45524332303a2064656372656173656420616c6c6f77616e63652062656c6f775f8201527f207a65726f000000000000000000000000000000000000000000000000000000602082015250565b5f6110d6602583610ce0565b91506110e18261107c565b604082019050919050565b5f6020820190508181035f830152611103816110ca565b9050919050565b7f4f776e61626c653a206e6577206f776e657220697320746865207a65726f20615f8201527f6464726573730000000000000000000000000000000000000000000000000000602082015250565b5f611164602683610ce0565b915061116f8261110a565b604082019050919050565b5f6020820190508181035f83015261119181611158565b9050919050565b7f45524332303a20617070726f76652066726f6d20746865207a65726f206164645f8201527f7265737300000000000000000000000000000000000000000000000000000000602082015250565b5f6111f2602483610ce0565b91506111fd82611198565b604082019050919050565b5f6020820190508181035f83015261121f816111e6565b9050919050565b7f45524332303a20617070726f766520746f20746865207a65726f2061646472655f8201527f7373000000000000000000000000000000000000000000000000000000000000602082015250565b5f611280602283610ce0565b915061128b82611226565b604082019050919050565b5f6020820190508181035f8301526112ad81611274565b9050919050565b7f45524332303a20696e73756666696369656e7420616c6c6f77616e63650000005f82015250565b5f6112e8601d83610ce0565b91506112f3826112b4565b602082019050919050565b5f6020820190508181035f830152611315816112dc565b9050919050565b7f45524332303a207472616e736665722066726f6d20746865207a65726f2061645f8201527f6472657373000000000000000000000000000000000000000000000000000000602082015250565b5f611376602583610ce0565b91506113818261131c565b604082019050919050565b5f6020820190508181035f8301526113a38161136a565b9050919050565b7f45524332303a207472616e7366657220746f20746865207a65726f20616464725f8201527f6573730000000000000000000000000000000000000000000000000000000000602082015250565b5f611404602383610ce0565b915061140f826113aa565b604082019050919050565b5f6020820190508181035f830152611431816113f8565b9050919050565b7f45524332303a207472616e7366657220616d6f756e74206578636565647320625f8201527f616c616e63650000000000000000000000000000000000000000000000000000602082015250565b5f611492602683610ce0565b915061149d82611438565b604082019050919050565b5f6020820190508181035f8301526114bf81611486565b9050919050565b7f4f776e61626c653a2063616c6c6572206973206e6f7420746865206f776e65725f82015250565b5f6114fa602083610ce0565b9150611505826114c6565b602082019050919050565b5f6020820190508181035f830152611527816114ee565b905091905056fea2646970667358221220aa0d1ce6ea54e8cf8c03ac7275098d301c0a92c9cff9494e466a5bff78ca0c6464736f6c63430008150033",
  "immutableReferences": {},
  "source": "// SPDX-License-Identifier: MIT\npragma solidity >=0.4.22 <0.9.0;\n\nimport \"@openzeppelin/contracts/access/Ownable.sol\";\nimport \"@openzeppelin/contracts/token/ERC20/ERC20.sol\";\n\ncontract ERC20FixedSupply is ERC20, Ownable {\n    constructor() ERC20(\"Chainbrary Token\", \"CB\") {\n        _mint(msg.sender, 21000000000 * (10 ** uint256(decimals())));\n    }\n}\n",
  "sourcePath": "/Users/raphaeletang-sale/Projects/ChainBrary/SmartContracts/contracts/ERC20FixedSupply.sol",
  "compiler": {
    "name": "solc",
    "version": "0.8.21+commit.d9974bed.Emscripten.clang"
  },
  "schemaVersion": "3.4.16",
  "updatedAt": "2023-10-11T00:10:43.385Z",
  "networkType": "ethereum",
  "devdoc": {
    "events": {
      "Approval(address,address,uint256)": {
        "details": "Emitted when the allowance of a `spender` for an `owner` is set by a call to {approve}. `value` is the new allowance."
      },
      "Transfer(address,address,uint256)": {
        "details": "Emitted when `value` tokens are moved from one account (`from`) to another (`to`). Note that `value` may be zero."
      }
    },
    "kind": "dev",
    "methods": {
      "allowance(address,address)": {
        "details": "See {IERC20-allowance}."
      },
      "approve(address,uint256)": {
        "details": "See {IERC20-approve}. NOTE: If `amount` is the maximum `uint256`, the allowance is not updated on `transferFrom`. This is semantically equivalent to an infinite approval. Requirements: - `spender` cannot be the zero address."
      },
      "balanceOf(address)": {
        "details": "See {IERC20-balanceOf}."
      },
      "decimals()": {
        "details": "Returns the number of decimals used to get its user representation. For example, if `decimals` equals `2`, a balance of `505` tokens should be displayed to a user as `5.05` (`505 / 10 ** 2`). Tokens usually opt for a value of 18, imitating the relationship between Ether and Wei. This is the default value returned by this function, unless it's overridden. NOTE: This information is only used for _display_ purposes: it in no way affects any of the arithmetic of the contract, including {IERC20-balanceOf} and {IERC20-transfer}."
      },
      "decreaseAllowance(address,uint256)": {
        "details": "Atomically decreases the allowance granted to `spender` by the caller. This is an alternative to {approve} that can be used as a mitigation for problems described in {IERC20-approve}. Emits an {Approval} event indicating the updated allowance. Requirements: - `spender` cannot be the zero address. - `spender` must have allowance for the caller of at least `subtractedValue`."
      },
      "increaseAllowance(address,uint256)": {
        "details": "Atomically increases the allowance granted to `spender` by the caller. This is an alternative to {approve} that can be used as a mitigation for problems described in {IERC20-approve}. Emits an {Approval} event indicating the updated allowance. Requirements: - `spender` cannot be the zero address."
      },
      "name()": {
        "details": "Returns the name of the token."
      },
      "owner()": {
        "details": "Returns the address of the current owner."
      },
      "renounceOwnership()": {
        "details": "Leaves the contract without owner. It will not be possible to call `onlyOwner` functions. Can only be called by the current owner. NOTE: Renouncing ownership will leave the contract without an owner, thereby disabling any functionality that is only available to the owner."
      },
      "symbol()": {
        "details": "Returns the symbol of the token, usually a shorter version of the name."
      },
      "totalSupply()": {
        "details": "See {IERC20-totalSupply}."
      },
      "transfer(address,uint256)": {
        "details": "See {IERC20-transfer}. Requirements: - `to` cannot be the zero address. - the caller must have a balance of at least `amount`."
      },
      "transferFrom(address,address,uint256)": {
        "details": "See {IERC20-transferFrom}. Emits an {Approval} event indicating the updated allowance. This is not required by the EIP. See the note at the beginning of {ERC20}. NOTE: Does not update the allowance if the current allowance is the maximum `uint256`. Requirements: - `from` and `to` cannot be the zero address. - `from` must have a balance of at least `amount`. - the caller must have allowance for ``from``'s tokens of at least `amount`."
      },
      "transferOwnership(address)": {
        "details": "Transfers ownership of the contract to a new account (`newOwner`). Can only be called by the current owner."
      }
    },
    "version": 1
  },
  "userdoc": {
    "kind": "user",
    "methods": {},
    "version": 1
  }
}