{
  "contractName": "Organization",
  "abi": [
    {
      "anonymous": false,
      "inputs": [
        {
          "indexed": true,
          "internalType": "address",
          "name": "userAddress",
          "type": "address"
        },
        {
          "indexed": false,
          "internalType": "string",
          "name": "userName",
          "type": "string"
        },
        {
          "indexed": false,
          "internalType": "string",
          "name": "imgUrl",
          "type": "string"
        },
        {
          "indexed": false,
          "internalType": "string",
          "name": "description",
          "type": "string"
        },
        {
          "indexed": false,
          "internalType": "uint256",
          "name": "expirationDate",
          "type": "uint256"
        }
      ],
      "name": "MemberAccountAdded",
      "type": "event"
    },
    {
      "anonymous": false,
      "inputs": [
        {
          "indexed": true,
          "internalType": "address",
          "name": "userAddress",
          "type": "address"
        }
      ],
      "name": "MemberAccountDeleted",
      "type": "event"
    },
    {
      "anonymous": false,
      "inputs": [
        {
          "indexed": true,
          "internalType": "address",
          "name": "userAddress",
          "type": "address"
        },
        {
          "indexed": false,
          "internalType": "string",
          "name": "userName",
          "type": "string"
        },
        {
          "indexed": false,
          "internalType": "string",
          "name": "imgUrl",
          "type": "string"
        },
        {
          "indexed": false,
          "internalType": "string",
          "name": "description",
          "type": "string"
        }
      ],
      "name": "MemberAccountEdited",
      "type": "event"
    },
    {
      "anonymous": false,
      "inputs": [
        {
          "indexed": true,
          "internalType": "address",
          "name": "userAddress",
          "type": "address"
        },
        {
          "indexed": false,
          "internalType": "string",
          "name": "userName",
          "type": "string"
        },
        {
          "indexed": false,
          "internalType": "string",
          "name": "imgUrl",
          "type": "string"
        },
        {
          "indexed": false,
          "internalType": "string",
          "name": "description",
          "type": "string"
        },
        {
          "indexed": false,
          "internalType": "uint256",
          "name": "expirationDate",
          "type": "uint256"
        },
        {
          "indexed": false,
          "internalType": "string",
          "name": "organizationKey",
          "type": "string"
        }
      ],
      "name": "MemberAccountSaved",
      "type": "event"
    },
    {
      "anonymous": false,
      "inputs": [
        {
          "indexed": false,
          "internalType": "string",
          "name": "name",
          "type": "string"
        },
        {
          "indexed": false,
          "internalType": "string",
          "name": "key",
          "type": "string"
        },
        {
          "indexed": false,
          "internalType": "string",
          "name": "supportUrl",
          "type": "string"
        },
        {
          "indexed": false,
          "internalType": "address",
          "name": "manager",
          "type": "address"
        },
        {
          "indexed": false,
          "internalType": "uint256",
          "name": "pricePerDay",
          "type": "uint256"
        }
      ],
      "name": "OrganizationAdded",
      "type": "event"
    },
    {
      "anonymous": false,
      "inputs": [
        {
          "indexed": false,
          "internalType": "string",
          "name": "key",
          "type": "string"
        }
      ],
      "name": "OrganizationDeleted",
      "type": "event"
    },
    {
      "anonymous": false,
      "inputs": [
        {
          "indexed": false,
          "internalType": "string",
          "name": "name",
          "type": "string"
        },
        {
          "indexed": false,
          "internalType": "string",
          "name": "key",
          "type": "string"
        },
        {
          "indexed": false,
          "internalType": "string",
          "name": "supportUrl",
          "type": "string"
        },
        {
          "indexed": false,
          "internalType": "address",
          "name": "manager",
          "type": "address"
        },
        {
          "indexed": false,
          "internalType": "uint256",
          "name": "pricePerDay",
          "type": "uint256"
        }
      ],
      "name": "OrganizationEdited",
      "type": "event"
    },
    {
      "anonymous": false,
      "inputs": [
        {
          "indexed": false,
          "internalType": "string",
          "name": "name",
          "type": "string"
        },
        {
          "indexed": false,
          "internalType": "string",
          "name": "key",
          "type": "string"
        },
        {
          "indexed": false,
          "internalType": "string",
          "name": "supportUrl",
          "type": "string"
        },
        {
          "indexed": false,
          "internalType": "address",
          "name": "manager",
          "type": "address"
        },
        {
          "indexed": false,
          "internalType": "uint256",
          "name": "pricePerDay",
          "type": "uint256"
        }
      ],
      "name": "OrganizationSaved",
      "type": "event"
    },
    {
      "anonymous": false,
      "inputs": [
        {
          "indexed": true,
          "internalType": "address",
          "name": "previousOwner",
          "type": "address"
        },
        {
          "indexed": true,
          "internalType": "address",
          "name": "newOwner",
          "type": "address"
        }
      ],
      "name": "OwnershipTransferred",
      "type": "event"
    },
    {
      "anonymous": false,
      "inputs": [
        {
          "indexed": true,
          "internalType": "address",
          "name": "from",
          "type": "address"
        },
        {
          "indexed": true,
          "internalType": "address",
          "name": "to",
          "type": "address"
        },
        {
          "indexed": false,
          "internalType": "uint256",
          "name": "value",
          "type": "uint256"
        }
      ],
      "name": "Transfer",
      "type": "event"
    },
    {
      "inputs": [],
      "name": "MAX_DAYS",
      "outputs": [
        {
          "internalType": "uint256",
          "name": "",
          "type": "uint256"
        }
      ],
      "stateMutability": "view",
      "type": "function",
      "constant": true
    },
    {
      "inputs": [],
      "name": "MIN_MONTHLY_TRANSACTION",
      "outputs": [
        {
          "internalType": "uint256",
          "name": "",
          "type": "uint256"
        }
      ],
      "stateMutability": "view",
      "type": "function",
      "constant": true
    },
    {
      "inputs": [
        {
          "internalType": "string",
          "name": "",
          "type": "string"
        }
      ],
      "name": "organizations",
      "outputs": [
        {
          "internalType": "string",
          "name": "name",
          "type": "string"
        },
        {
          "internalType": "string",
          "name": "key",
          "type": "string"
        },
        {
          "internalType": "string",
          "name": "supportUrl",
          "type": "string"
        },
        {
          "internalType": "address",
          "name": "manager",
          "type": "address"
        },
        {
          "internalType": "uint256",
          "name": "pricePerDay",
          "type": "uint256"
        }
      ],
      "stateMutability": "view",
      "type": "function",
      "constant": true
    },
    {
      "inputs": [],
      "name": "owner",
      "outputs": [
        {
          "internalType": "address",
          "name": "",
          "type": "address"
        }
      ],
      "stateMutability": "view",
      "type": "function",
      "constant": true
    },
    {
      "inputs": [],
      "name": "renounceOwnership",
      "outputs": [],
      "stateMutability": "nonpayable",
      "type": "function"
    },
    {
      "inputs": [
        {
          "internalType": "address",
          "name": "newOwner",
          "type": "address"
        }
      ],
      "name": "transferOwnership",
      "outputs": [],
      "stateMutability": "nonpayable",
      "type": "function"
    },
    {
      "inputs": [
        {
          "internalType": "address",
          "name": "_manager",
          "type": "address"
        },
        {
          "internalType": "string",
          "name": "_key",
          "type": "string"
        }
      ],
      "name": "getOrganizationByManagerAndKey",
      "outputs": [
        {
          "internalType": "string",
          "name": "",
          "type": "string"
        },
        {
          "internalType": "string",
          "name": "",
          "type": "string"
        },
        {
          "internalType": "string",
          "name": "",
          "type": "string"
        },
        {
          "internalType": "address",
          "name": "",
          "type": "address"
        },
        {
          "internalType": "uint256",
          "name": "",
          "type": "uint256"
        }
      ],
      "stateMutability": "view",
      "type": "function",
      "constant": true
    },
    {
      "inputs": [
        {
          "internalType": "string",
          "name": "_organizationKey",
          "type": "string"
        },
        {
          "internalType": "address",
          "name": "_userAddress",
          "type": "address"
        }
      ],
      "name": "getAccountByOrganizationAndUserAddress",
      "outputs": [
        {
          "internalType": "address",
          "name": "",
          "type": "address"
        },
        {
          "internalType": "string",
          "name": "",
          "type": "string"
        },
        {
          "internalType": "string",
          "name": "",
          "type": "string"
        },
        {
          "internalType": "string",
          "name": "",
          "type": "string"
        },
        {
          "internalType": "uint256",
          "name": "",
          "type": "uint256"
        }
      ],
      "stateMutability": "view",
      "type": "function",
      "constant": true
    },
    {
      "inputs": [
        {
          "internalType": "string",
          "name": "_name",
          "type": "string"
        },
        {
          "internalType": "string",
          "name": "_key",
          "type": "string"
        },
        {
          "internalType": "string",
          "name": "_supportUrl",
          "type": "string"
        },
        {
          "internalType": "uint256",
          "name": "_pricePerDay",
          "type": "uint256"
        }
      ],
      "name": "addOrganization",
      "outputs": [],
      "stateMutability": "nonpayable",
      "type": "function"
    },
    {
      "inputs": [
        {
          "internalType": "string",
          "name": "_key",
          "type": "string"
        },
        {
          "internalType": "string",
          "name": "_name",
          "type": "string"
        },
        {
          "internalType": "string",
          "name": "_supportUrl",
          "type": "string"
        },
        {
          "internalType": "uint256",
          "name": "_pricePerDay",
          "type": "uint256"
        }
      ],
      "name": "editOrganization",
      "outputs": [],
      "stateMutability": "nonpayable",
      "type": "function"
    },
    {
      "inputs": [
        {
          "internalType": "string",
          "name": "_key",
          "type": "string"
        }
      ],
      "name": "deleteOrganization",
      "outputs": [],
      "stateMutability": "nonpayable",
      "type": "function"
    },
    {
      "inputs": [
        {
          "internalType": "string",
          "name": "_organizationKey",
          "type": "string"
        },
        {
          "internalType": "string",
          "name": "_userName",
          "type": "string"
        },
        {
          "internalType": "string",
          "name": "_imgUrl",
          "type": "string"
        },
        {
          "internalType": "string",
          "name": "_description",
          "type": "string"
        }
      ],
      "name": "addAccount",
      "outputs": [],
      "stateMutability": "payable",
      "type": "function",
      "payable": true
    },
    {
      "inputs": [
        {
          "internalType": "string",
          "name": "_organizationKey",
          "type": "string"
        }
      ],
      "name": "addAmountToAccount",
      "outputs": [],
      "stateMutability": "payable",
      "type": "function",
      "payable": true
    },
    {
      "inputs": [
        {
          "internalType": "string",
          "name": "_organizationKey",
          "type": "string"
        },
        {
          "internalType": "string",
          "name": "_userName",
          "type": "string"
        },
        {
          "internalType": "string",
          "name": "_imgUrl",
          "type": "string"
        },
        {
          "internalType": "string",
          "name": "_description",
          "type": "string"
        }
      ],
      "name": "editAccount",
      "outputs": [],
      "stateMutability": "nonpayable",
      "type": "function"
    },
    {
      "inputs": [
        {
          "internalType": "string",
          "name": "_organizationKey",
          "type": "string"
        },
        {
          "internalType": "address",
          "name": "_accountAddress",
          "type": "address"
        }
      ],
      "name": "isAccountCertificateValid",
      "outputs": [
        {
          "internalType": "bool",
          "name": "",
          "type": "bool"
        }
      ],
      "stateMutability": "view",
      "type": "function",
      "constant": true
    },
    {
      "inputs": [
        {
          "internalType": "string",
          "name": "_organizationKey",
          "type": "string"
        }
      ],
      "name": "deleteMyAccount",
      "outputs": [],
      "stateMutability": "nonpayable",
      "type": "function"
    },
    {
      "inputs": [
        {
          "internalType": "uint256",
          "name": "_minTransactionValue",
          "type": "uint256"
        }
      ],
      "name": "editMinTransaction",
      "outputs": [],
      "stateMutability": "nonpayable",
      "type": "function"
    },
    {
      "inputs": [
        {
          "internalType": "uint256",
          "name": "_maxDaysValue",
          "type": "uint256"
        }
      ],
      "name": "editMaxDays",
      "outputs": [],
      "stateMutability": "nonpayable",
      "type": "function"
    },
    {
      "inputs": [],
      "name": "exportExceed",
      "outputs": [],
      "stateMutability": "nonpayable",
      "type": "function"
    }
  ],
  "bytecode": "0x608060405266021a1e217dfaaa60015561016d6002556103e860035562000033601e6001546200006960201b90919060201c565b60045534801562000042575f80fd5b5062000063620000576200008060201b60201c565b6200008760201b60201c565b620001b5565b5f81836200007891906200017e565b905092915050565b5f33905090565b5f805f9054906101000a900473ffffffffffffffffffffffffffffffffffffffff169050815f806101000a81548173ffffffffffffffffffffffffffffffffffffffff021916908373ffffffffffffffffffffffffffffffffffffffff1602179055508173ffffffffffffffffffffffffffffffffffffffff168173ffffffffffffffffffffffffffffffffffffffff167f8be0079c531659141344cd1fd0a4f28419497f9722a3daafe3b4186f6b6457e060405160405180910390a35050565b5f819050919050565b7f4e487b71000000000000000000000000000000000000000000000000000000005f52601260045260245ffd5b5f6200018a8262000148565b9150620001978362000148565b925082620001aa57620001a962000151565b5b828204905092915050565b614b6d80620001c35f395ff3fe608060405260043610610113575f3560e01c80636b30d3051161009f5780639972a015116100635780639972a01514610355578063b6a372c41461037d578063d2861a26146103a5578063e311f43c146103cd578063f2fde38b1461040d57610113565b80636b30d30514610297578063715018a6146102bf578063783091b7146102d5578063824dcca8146103155780638da5cb5b1461032b57610113565b8063239a0c1b116100e6578063239a0c1b146101d75780633e3d6c11146101ff5780635a7901b8146102275780636366d7c814610243578063693eafff1461026d57610113565b8063026362a51461011757806305ad756f146101335780630d8aa8f5146101735780631057ed8e146101af575b5f80fd5b610131600480360381019061012c91906137e6565b610435565b005b34801561013e575f80fd5b5061015960048036038101906101549190613914565b610cfd565b60405161016a959493929190613a0f565b60405180910390f35b34801561017e575f80fd5b5061019960048036038101906101949190613a75565b6110d9565b6040516101a69190613ae9565b60405180910390f35b3480156101ba575f80fd5b506101d560048036038101906101d09190613b2c565b6111f4565b005b3480156101e2575f80fd5b506101fd60048036038101906101f891906137e6565b611206565b005b34801561020a575f80fd5b5061022560048036038101906102209190613b57565b61162f565b005b610241600480360381019061023c9190613b57565b611a72565b005b34801561024e575f80fd5b506102576122d7565b6040516102649190613b9e565b60405180910390f35b348015610278575f80fd5b506102816122dd565b60405161028e9190613b9e565b60405180910390f35b3480156102a2575f80fd5b506102bd60048036038101906102b89190613bb7565b6122e3565b005b3480156102ca575f80fd5b506102d3612651565b005b3480156102e0575f80fd5b506102fb60048036038101906102f69190613a75565b612664565b60405161030c959493929190613c6f565b60405180910390f35b348015610320575f80fd5b50610329612bb3565b005b348015610336575f80fd5b5061033f612c08565b60405161034c9190613cd5565b60405180910390f35b348015610360575f80fd5b5061037b60048036038101906103769190613b57565b612c2f565b005b348015610388575f80fd5b506103a3600480360381019061039e9190613b2c565b612eef565b005b3480156103b0575f80fd5b506103cb60048036038101906103c69190613bb7565b612f01565b005b3480156103d8575f80fd5b506103f360048036038101906103ee9190613b57565b61322a565b604051610404959493929190613a0f565b60405180910390f35b348015610418575f80fd5b50610433600480360381019061042e9190613cee565b613425565b005b835f73ffffffffffffffffffffffffffffffffffffffff1660058260405161045d9190613d53565b90815260200160405180910390206003015f9054906101000a900473ffffffffffffffffffffffffffffffffffffffff1673ffffffffffffffffffffffffffffffffffffffff16036104e4576040517f08c379a00000000000000000000000000000000000000000000000000000000081526004016104db90613db3565b60405180910390fd5b846104ed6134a7565b73ffffffffffffffffffffffffffffffffffffffff166005826040516105139190613d53565b90815260200160405180910390206004015f61052d6134a7565b73ffffffffffffffffffffffffffffffffffffffff1673ffffffffffffffffffffffffffffffffffffffff1681526020019081526020015f205f015f9054906101000a900473ffffffffffffffffffffffffffffffffffffffff1673ffffffffffffffffffffffffffffffffffffffff16036105de576040517f08c379a00000000000000000000000000000000000000000000000000000000081526004016105d590613e1b565b60405180910390fd5b85600454341015610624576040517f08c379a000000000000000000000000000000000000000000000000000000000815260040161061b90613e83565b60405180910390fd5b6005816040516106349190613d53565b908152602001604051809103902060050154341015610688576040517f08c379a000000000000000000000000000000000000000000000000000000000815260040161067f90613eeb565b60405180910390fd5b6106be60025460058360405161069e9190613d53565b9081526020016040518091039020600501546134ae90919063ffffffff16565b341115610700576040517f08c379a00000000000000000000000000000000000000000000000000000000081526004016106f790613f79565b60405180910390fd5b5f6005886040516107119190613d53565b90815260200160405180910390206005015490505f61073982346134c390919063ffffffff16565b90505f61076461075562015180846134ae90919063ffffffff16565b426134d890919063ffffffff16565b905061076e6134a7565b73ffffffffffffffffffffffffffffffffffffffff167fca82782c7f3916680f48749bfaa2af196da83d1f13b9de2b0cf7b9f8cdb13ebb8a8a8a856040516107b99493929190613f97565b60405180910390a26107c96134a7565b73ffffffffffffffffffffffffffffffffffffffff167f618ae28401fcff48e29d99dd38bf6174f02f1b8db383b80584b0c692184149e48a8a8a858f604051610816959493929190613fef565b60405180910390a2610826612c08565b73ffffffffffffffffffffffffffffffffffffffff166108446134a7565b73ffffffffffffffffffffffffffffffffffffffff167fddf252ad1be2c89b69c2b068fc378daa952ba7f163c4a11628f55a4df523b3ef6108906103e8346134c390919063ffffffff16565b60405161089d9190613b9e565b60405180910390a360058a6040516108b59190613d53565b90815260200160405180910390206003015f9054906101000a900473ffffffffffffffffffffffffffffffffffffffff1673ffffffffffffffffffffffffffffffffffffffff166109046134a7565b73ffffffffffffffffffffffffffffffffffffffff167fddf252ad1be2c89b69c2b068fc378daa952ba7f163c4a11628f55a4df523b3ef6109626109536103e8346134c390919063ffffffff16565b346134ed90919063ffffffff16565b60405161096f9190613b9e565b60405180910390a361097f6134a7565b60058b60405161098f9190613d53565b90815260200160405180910390206004015f6109a96134a7565b73ffffffffffffffffffffffffffffffffffffffff1673ffffffffffffffffffffffffffffffffffffffff1681526020019081526020015f205f015f6101000a81548173ffffffffffffffffffffffffffffffffffffffff021916908373ffffffffffffffffffffffffffffffffffffffff1602179055508860058b604051610a329190613d53565b90815260200160405180910390206004015f610a4c6134a7565b73ffffffffffffffffffffffffffffffffffffffff1673ffffffffffffffffffffffffffffffffffffffff1681526020019081526020015f206001019081610a949190614256565b508760058b604051610aa69190613d53565b90815260200160405180910390206004015f610ac06134a7565b73ffffffffffffffffffffffffffffffffffffffff1673ffffffffffffffffffffffffffffffffffffffff1681526020019081526020015f206002019081610b089190614256565b508660058b604051610b1a9190613d53565b90815260200160405180910390206004015f610b346134a7565b73ffffffffffffffffffffffffffffffffffffffff1673ffffffffffffffffffffffffffffffffffffffff1681526020019081526020015f206003019081610b7c9190614256565b508060058b604051610b8e9190613d53565b90815260200160405180910390206004015f610ba86134a7565b73ffffffffffffffffffffffffffffffffffffffff1673ffffffffffffffffffffffffffffffffffffffff1681526020019081526020015f2060040181905550610bf0612c08565b73ffffffffffffffffffffffffffffffffffffffff166108fc610c1e6103e8346134c390919063ffffffff16565b90811502906040515f60405180830381858888f19350505050158015610c46573d5f803e3d5ffd5b5060058a604051610c579190613d53565b90815260200160405180910390206003015f9054906101000a900473ffffffffffffffffffffffffffffffffffffffff1673ffffffffffffffffffffffffffffffffffffffff166108fc610cc8610cb96103e8346134c390919063ffffffff16565b346134ed90919063ffffffff16565b90811502906040515f60405180830381858888f19350505050158015610cf0573d5f803e3d5ffd5b5050505050505050505050565b60608060605f80855f73ffffffffffffffffffffffffffffffffffffffff16600582604051610d2c9190613d53565b90815260200160405180910390206003015f9054906101000a900473ffffffffffffffffffffffffffffffffffffffff1673ffffffffffffffffffffffffffffffffffffffff1603610db3576040517f08c379a0000000000000000000000000000000000000000000000000000000008152600401610daa90613db3565b60405180910390fd5b8773ffffffffffffffffffffffffffffffffffffffff16600588604051610dda9190613d53565b90815260200160405180910390206003015f9054906101000a900473ffffffffffffffffffffffffffffffffffffffff1673ffffffffffffffffffffffffffffffffffffffff1614610e61576040517f08c379a0000000000000000000000000000000000000000000000000000000008152600401610e589061436f565b60405180910390fd5b600587604051610e719190613d53565b90815260200160405180910390205f01600588604051610e919190613d53565b9081526020016040518091039020600101600589604051610eb29190613d53565b908152602001604051809103902060020160058a604051610ed39190613d53565b90815260200160405180910390206003015f9054906101000a900473ffffffffffffffffffffffffffffffffffffffff1660058b604051610f149190613d53565b908152602001604051809103902060050154848054610f3290614089565b80601f0160208091040260200160405190810160405280929190818152602001828054610f5e90614089565b8015610fa95780601f10610f8057610100808354040283529160200191610fa9565b820191905f5260205f20905b815481529060010190602001808311610f8c57829003601f168201915b50505050509450838054610fbc90614089565b80601f0160208091040260200160405190810160405280929190818152602001828054610fe890614089565b80156110335780601f1061100a57610100808354040283529160200191611033565b820191905f5260205f20905b81548152906001019060200180831161101657829003601f168201915b5050505050935082805461104690614089565b80601f016020809104026020016040519081016040528092919081815260200182805461107290614089565b80156110bd5780601f10611094576101008083540402835291602001916110bd565b820191905f5260205f20905b8154815290600101906020018083116110a057829003601f168201915b5050505050925095509550955095509550509295509295909350565b5f825f73ffffffffffffffffffffffffffffffffffffffff166005826040516111029190613d53565b90815260200160405180910390206003015f9054906101000a900473ffffffffffffffffffffffffffffffffffffffff1673ffffffffffffffffffffffffffffffffffffffff1603611189576040517f08c379a000000000000000000000000000000000000000000000000000000000815260040161118090613db3565b60405180910390fd5b4260058560405161119a9190613d53565b90815260200160405180910390206004015f8573ffffffffffffffffffffffffffffffffffffffff1673ffffffffffffffffffffffffffffffffffffffff1681526020019081526020015f20600401541191505092915050565b6111fc613502565b8060028190555050565b835f73ffffffffffffffffffffffffffffffffffffffff1660058260405161122e9190613d53565b90815260200160405180910390206003015f9054906101000a900473ffffffffffffffffffffffffffffffffffffffff1673ffffffffffffffffffffffffffffffffffffffff16036112b5576040517f08c379a00000000000000000000000000000000000000000000000000000000081526004016112ac90613db3565b60405180910390fd5b846112be6134a7565b73ffffffffffffffffffffffffffffffffffffffff166005826040516112e49190613d53565b90815260200160405180910390206004015f6112fe6134a7565b73ffffffffffffffffffffffffffffffffffffffff1673ffffffffffffffffffffffffffffffffffffffff1681526020019081526020015f205f015f9054906101000a900473ffffffffffffffffffffffffffffffffffffffff1673ffffffffffffffffffffffffffffffffffffffff16146113af576040517f08c379a00000000000000000000000000000000000000000000000000000000081526004016113a6906143d7565b60405180910390fd5b6113b76134a7565b73ffffffffffffffffffffffffffffffffffffffff167f9f3b139111db582e34412e338f16ecd8aaf34eb270e60967cd148b834b107da9868686604051611400939291906143f5565b60405180910390a26114106134a7565b73ffffffffffffffffffffffffffffffffffffffff167f618ae28401fcff48e29d99dd38bf6174f02f1b8db383b80584b0c692184149e486868660058b60405161145a9190613d53565b90815260200160405180910390206004015f6114746134a7565b73ffffffffffffffffffffffffffffffffffffffff1673ffffffffffffffffffffffffffffffffffffffff1681526020019081526020015f20600401548b6040516114c3959493929190613fef565b60405180910390a2846005876040516114dc9190613d53565b90815260200160405180910390206004015f6114f66134a7565b73ffffffffffffffffffffffffffffffffffffffff1673ffffffffffffffffffffffffffffffffffffffff1681526020019081526020015f20600101908161153e9190614256565b50836005876040516115509190613d53565b90815260200160405180910390206004015f61156a6134a7565b73ffffffffffffffffffffffffffffffffffffffff1673ffffffffffffffffffffffffffffffffffffffff1681526020019081526020015f2060020190816115b29190614256565b50826005876040516115c49190613d53565b90815260200160405180910390206004015f6115de6134a7565b73ffffffffffffffffffffffffffffffffffffffff1673ffffffffffffffffffffffffffffffffffffffff1681526020019081526020015f2060030190816116269190614256565b50505050505050565b805f73ffffffffffffffffffffffffffffffffffffffff166005826040516116579190613d53565b90815260200160405180910390206003015f9054906101000a900473ffffffffffffffffffffffffffffffffffffffff1673ffffffffffffffffffffffffffffffffffffffff16036116de576040517f08c379a00000000000000000000000000000000000000000000000000000000081526004016116d590613db3565b60405180910390fd5b816116e76134a7565b73ffffffffffffffffffffffffffffffffffffffff1660058260405161170d9190613d53565b90815260200160405180910390206004015f6117276134a7565b73ffffffffffffffffffffffffffffffffffffffff1673ffffffffffffffffffffffffffffffffffffffff1681526020019081526020015f205f015f9054906101000a900473ffffffffffffffffffffffffffffffffffffffff1673ffffffffffffffffffffffffffffffffffffffff16146117d8576040517f08c379a00000000000000000000000000000000000000000000000000000000081526004016117cf906143d7565b60405180910390fd5b6117e06134a7565b73ffffffffffffffffffffffffffffffffffffffff167f105424487e83fe5c5a58030395a029de3431598e6583e9a9a97f54a8d7cd45ef60405160405180910390a261182a6134a7565b73ffffffffffffffffffffffffffffffffffffffff167f618ae28401fcff48e29d99dd38bf6174f02f1b8db383b80584b0c692184149e46005856040516118719190613d53565b90815260200160405180910390206004015f61188b6134a7565b73ffffffffffffffffffffffffffffffffffffffff1673ffffffffffffffffffffffffffffffffffffffff1681526020019081526020015f206001016005866040516118d79190613d53565b90815260200160405180910390206004015f6118f16134a7565b73ffffffffffffffffffffffffffffffffffffffff1673ffffffffffffffffffffffffffffffffffffffff1681526020019081526020015f2060020160058760405161193d9190613d53565b90815260200160405180910390206004015f6119576134a7565b73ffffffffffffffffffffffffffffffffffffffff1673ffffffffffffffffffffffffffffffffffffffff1681526020019081526020015f2060030142886040516119a69594939291906144c0565b60405180910390a26005836040516119be9190613d53565b90815260200160405180910390206004015f6119d86134a7565b73ffffffffffffffffffffffffffffffffffffffff1673ffffffffffffffffffffffffffffffffffffffff1681526020019081526020015f205f8082015f6101000a81549073ffffffffffffffffffffffffffffffffffffffff0219169055600182015f611a469190613641565b600282015f611a559190613641565b600382015f611a649190613641565b600482015f90555050505050565b805f73ffffffffffffffffffffffffffffffffffffffff16600582604051611a9a9190613d53565b90815260200160405180910390206003015f9054906101000a900473ffffffffffffffffffffffffffffffffffffffff1673ffffffffffffffffffffffffffffffffffffffff1603611b21576040517f08c379a0000000000000000000000000000000000000000000000000000000008152600401611b1890613db3565b60405180910390fd5b81611b2a6134a7565b73ffffffffffffffffffffffffffffffffffffffff16600582604051611b509190613d53565b90815260200160405180910390206004015f611b6a6134a7565b73ffffffffffffffffffffffffffffffffffffffff1673ffffffffffffffffffffffffffffffffffffffff1681526020019081526020015f205f015f9054906101000a900473ffffffffffffffffffffffffffffffffffffffff1673ffffffffffffffffffffffffffffffffffffffff1614611c1b576040517f08c379a0000000000000000000000000000000000000000000000000000000008152600401611c12906143d7565b60405180910390fd5b82600454341015611c61576040517f08c379a0000000000000000000000000000000000000000000000000000000008152600401611c5890613e83565b60405180910390fd5b600581604051611c719190613d53565b908152602001604051809103902060050154341015611cc5576040517f08c379a0000000000000000000000000000000000000000000000000000000008152600401611cbc90613eeb565b60405180910390fd5b611cfb600254600583604051611cdb9190613d53565b9081526020016040518091039020600501546134ae90919063ffffffff16565b341115611d3d576040517f08c379a0000000000000000000000000000000000000000000000000000000008152600401611d3490613f79565b60405180910390fd5b5f600585604051611d4e9190613d53565b90815260200160405180910390206005015490505f611d7682346134c390919063ffffffff16565b90505f611e07611d9262015180846134ae90919063ffffffff16565b600589604051611da29190613d53565b90815260200160405180910390206004015f611dbc6134a7565b73ffffffffffffffffffffffffffffffffffffffff1673ffffffffffffffffffffffffffffffffffffffff1681526020019081526020015f20600401546134d890919063ffffffff16565b9050611e33611e24620151806002546134ae90919063ffffffff16565b426134d890919063ffffffff16565b811115611e75576040517f08c379a0000000000000000000000000000000000000000000000000000000008152600401611e6c90613f79565b60405180910390fd5b80600588604051611e869190613d53565b90815260200160405180910390206004015f611ea06134a7565b73ffffffffffffffffffffffffffffffffffffffff1673ffffffffffffffffffffffffffffffffffffffff1681526020019081526020015f2060040181905550611ee8612c08565b73ffffffffffffffffffffffffffffffffffffffff16611f066134a7565b73ffffffffffffffffffffffffffffffffffffffff167fddf252ad1be2c89b69c2b068fc378daa952ba7f163c4a11628f55a4df523b3ef611f526103e8346134c390919063ffffffff16565b604051611f5f9190613b9e565b60405180910390a3600587604051611f779190613d53565b90815260200160405180910390206003015f9054906101000a900473ffffffffffffffffffffffffffffffffffffffff1673ffffffffffffffffffffffffffffffffffffffff16611fc66134a7565b73ffffffffffffffffffffffffffffffffffffffff167fddf252ad1be2c89b69c2b068fc378daa952ba7f163c4a11628f55a4df523b3ef6120246120156103e8346134c390919063ffffffff16565b346134ed90919063ffffffff16565b6040516120319190613b9e565b60405180910390a36120416134a7565b73ffffffffffffffffffffffffffffffffffffffff167f618ae28401fcff48e29d99dd38bf6174f02f1b8db383b80584b0c692184149e46005896040516120889190613d53565b90815260200160405180910390206004015f6120a26134a7565b73ffffffffffffffffffffffffffffffffffffffff1673ffffffffffffffffffffffffffffffffffffffff1681526020019081526020015f2060010160058a6040516120ee9190613d53565b90815260200160405180910390206004015f6121086134a7565b73ffffffffffffffffffffffffffffffffffffffff1673ffffffffffffffffffffffffffffffffffffffff1681526020019081526020015f2060020160058b6040516121549190613d53565b90815260200160405180910390206004015f61216e6134a7565b73ffffffffffffffffffffffffffffffffffffffff1673ffffffffffffffffffffffffffffffffffffffff1681526020019081526020015f20600301858c6040516121bd9594939291906144c0565b60405180910390a26121cd612c08565b73ffffffffffffffffffffffffffffffffffffffff166108fc6121fb6103e8346134c390919063ffffffff16565b90811502906040515f60405180830381858888f19350505050158015612223573d5f803e3d5ffd5b506005876040516122349190613d53565b90815260200160405180910390206003015f9054906101000a900473ffffffffffffffffffffffffffffffffffffffff1673ffffffffffffffffffffffffffffffffffffffff166108fc6122a56122966103e8346134c390919063ffffffff16565b346134ed90919063ffffffff16565b90811502906040515f60405180830381858888f193505050501580156122cd573d5f803e3d5ffd5b5050505050505050565b60015481565b60025481565b8383835f835111612329576040517f08c379a000000000000000000000000000000000000000000000000000000000815260040161232090614577565b60405180910390fd5b5f82511161236c576040517f08c379a0000000000000000000000000000000000000000000000000000000008152600401612363906145df565b60405180910390fd5b5f8151116123af576040517f08c379a00000000000000000000000000000000000000000000000000000000081526004016123a690614647565b60405180910390fd5b836004548110156123f5576040517f08c379a00000000000000000000000000000000000000000000000000000000081526004016123ec906146d5565b60405180910390fd5b5f73ffffffffffffffffffffffffffffffffffffffff1660058860405161241c9190613d53565b90815260200160405180910390206003015f9054906101000a900473ffffffffffffffffffffffffffffffffffffffff1673ffffffffffffffffffffffffffffffffffffffff16146124a3576040517f08c379a000000000000000000000000000000000000000000000000000000000815260040161249a9061473d565b60405180910390fd5b7fb865a6b6c85f2486aeb4f1f7afe4d41dc17cc8bac2a2788e5319f49786d113bd8888886124cf6134a7565b896040516124e1959493929190613a0f565b60405180910390a17f70ff204e683b13f1f51479e97b243fe82de55b7f68100107726e4681ccf914368888886125156134a7565b89604051612527959493929190613a0f565b60405180910390a1876005886040516125409190613d53565b90815260200160405180910390205f01908161255c9190614256565b508660058860405161256e9190613d53565b9081526020016040518091039020600101908161258b9190614256565b508560058860405161259d9190613d53565b908152602001604051809103902060020190816125ba9190614256565b506125c36134a7565b6005886040516125d39190613d53565b90815260200160405180910390206003015f6101000a81548173ffffffffffffffffffffffffffffffffffffffff021916908373ffffffffffffffffffffffffffffffffffffffff160217905550846005886040516126329190613d53565b9081526020016040518091039020600501819055505050505050505050565b612659613502565b6126625f613580565b565b5f60608060605f865f73ffffffffffffffffffffffffffffffffffffffff166005826040516126939190613d53565b90815260200160405180910390206003015f9054906101000a900473ffffffffffffffffffffffffffffffffffffffff1673ffffffffffffffffffffffffffffffffffffffff160361271a576040517f08c379a000000000000000000000000000000000000000000000000000000000815260040161271190613db3565b60405180910390fd5b8673ffffffffffffffffffffffffffffffffffffffff166005896040516127419190613d53565b90815260200160405180910390206004015f8973ffffffffffffffffffffffffffffffffffffffff1673ffffffffffffffffffffffffffffffffffffffff1681526020019081526020015f205f015f9054906101000a900473ffffffffffffffffffffffffffffffffffffffff1673ffffffffffffffffffffffffffffffffffffffff1614612805576040517f08c379a00000000000000000000000000000000000000000000000000000000081526004016127fc906147a5565b60405180910390fd5b6005886040516128159190613d53565b90815260200160405180910390206004015f8873ffffffffffffffffffffffffffffffffffffffff1673ffffffffffffffffffffffffffffffffffffffff1681526020019081526020015f205f015f9054906101000a900473ffffffffffffffffffffffffffffffffffffffff166005896040516128939190613d53565b90815260200160405180910390206004015f8973ffffffffffffffffffffffffffffffffffffffff1673ffffffffffffffffffffffffffffffffffffffff1681526020019081526020015f2060010160058a6040516128f29190613d53565b90815260200160405180910390206004015f8a73ffffffffffffffffffffffffffffffffffffffff1673ffffffffffffffffffffffffffffffffffffffff1681526020019081526020015f2060020160058b6040516129519190613d53565b90815260200160405180910390206004015f8b73ffffffffffffffffffffffffffffffffffffffff1673ffffffffffffffffffffffffffffffffffffffff1681526020019081526020015f2060030160058c6040516129b09190613d53565b90815260200160405180910390206004015f8c73ffffffffffffffffffffffffffffffffffffffff1673ffffffffffffffffffffffffffffffffffffffff1681526020019081526020015f2060040154838054612a0c90614089565b80601f0160208091040260200160405190810160405280929190818152602001828054612a3890614089565b8015612a835780601f10612a5a57610100808354040283529160200191612a83565b820191905f5260205f20905b815481529060010190602001808311612a6657829003601f168201915b50505050509350828054612a9690614089565b80601f0160208091040260200160405190810160405280929190818152602001828054612ac290614089565b8015612b0d5780601f10612ae457610100808354040283529160200191612b0d565b820191905f5260205f20905b815481529060010190602001808311612af057829003601f168201915b50505050509250818054612b2090614089565b80601f0160208091040260200160405190810160405280929190818152602001828054612b4c90614089565b8015612b975780601f10612b6e57610100808354040283529160200191612b97565b820191905f5260205f20905b815481529060010190602001808311612b7a57829003601f168201915b5050505050915095509550955095509550509295509295909350565b612bbb613502565b612bc3612c08565b73ffffffffffffffffffffffffffffffffffffffff166108fc4790811502906040515f60405180830381858888f19350505050158015612c05573d5f803e3d5ffd5b50565b5f805f9054906101000a900473ffffffffffffffffffffffffffffffffffffffff16905090565b805f73ffffffffffffffffffffffffffffffffffffffff16600582604051612c579190613d53565b90815260200160405180910390206003015f9054906101000a900473ffffffffffffffffffffffffffffffffffffffff1673ffffffffffffffffffffffffffffffffffffffff1603612cde576040517f08c379a0000000000000000000000000000000000000000000000000000000008152600401612cd590613db3565b60405180910390fd5b81612ce76134a7565b73ffffffffffffffffffffffffffffffffffffffff16600582604051612d0d9190613d53565b90815260200160405180910390206003015f9054906101000a900473ffffffffffffffffffffffffffffffffffffffff1673ffffffffffffffffffffffffffffffffffffffff1614612d94576040517f08c379a0000000000000000000000000000000000000000000000000000000008152600401612d8b90614833565b60405180910390fd5b7f70ff204e683b13f1f51479e97b243fe82de55b7f68100107726e4681ccf91436600584604051612dc59190613d53565b90815260200160405180910390205f01600585604051612de59190613d53565b9081526020016040518091039020600101600586604051612e069190613d53565b9081526020016040518091039020600201612e1f6134a7565b5f604051612e3195949392919061488a565b60405180910390a17fbfd59fe086f0bb2aa29ca24d84a3c262fbaabe6821ebfea88d8db73b0e2d207f83604051612e6891906148f0565b60405180910390a1600583604051612e809190613d53565b90815260200160405180910390205f8082015f612e9d9190613641565b600182015f612eac9190613641565b600282015f612ebb9190613641565b600382015f6101000a81549073ffffffffffffffffffffffffffffffffffffffff0219169055600582015f90555050505050565b612ef7613502565b8060018190555050565b835f73ffffffffffffffffffffffffffffffffffffffff16600582604051612f299190613d53565b90815260200160405180910390206003015f9054906101000a900473ffffffffffffffffffffffffffffffffffffffff1673ffffffffffffffffffffffffffffffffffffffff1603612fb0576040517f08c379a0000000000000000000000000000000000000000000000000000000008152600401612fa790613db3565b60405180910390fd5b84612fb96134a7565b73ffffffffffffffffffffffffffffffffffffffff16600582604051612fdf9190613d53565b90815260200160405180910390206003015f9054906101000a900473ffffffffffffffffffffffffffffffffffffffff1673ffffffffffffffffffffffffffffffffffffffff1614613066576040517f08c379a000000000000000000000000000000000000000000000000000000000815260040161305d90614833565b60405180910390fd5b826004548110156130ac576040517f08c379a00000000000000000000000000000000000000000000000000000000081526004016130a3906146d5565b60405180910390fd5b7f5de87cba7e44d3713c72fdf70687715905f6ad434f533ebccc6f604d10a138738688876130d86134a7565b886040516130ea959493929190613a0f565b60405180910390a17f70ff204e683b13f1f51479e97b243fe82de55b7f68100107726e4681ccf9143686888761311e6134a7565b88604051613130959493929190613a0f565b60405180910390a1856005886040516131499190613d53565b90815260200160405180910390205f0190816131659190614256565b50846005886040516131779190613d53565b908152602001604051809103902060020190816131949190614256565b5061319d6134a7565b6005886040516131ad9190613d53565b90815260200160405180910390206003015f6101000a81548173ffffffffffffffffffffffffffffffffffffffff021916908373ffffffffffffffffffffffffffffffffffffffff1602179055508360058860405161320c9190613d53565b90815260200160405180910390206005018190555050505050505050565b6005818051602081018201805184825260208301602085012081835280955050505050505f91509050805f01805461326190614089565b80601f016020809104026020016040519081016040528092919081815260200182805461328d90614089565b80156132d85780601f106132af576101008083540402835291602001916132d8565b820191905f5260205f20905b8154815290600101906020018083116132bb57829003601f168201915b5050505050908060010180546132ed90614089565b80601f016020809104026020016040519081016040528092919081815260200182805461331990614089565b80156133645780601f1061333b57610100808354040283529160200191613364565b820191905f5260205f20905b81548152906001019060200180831161334757829003601f168201915b50505050509080600201805461337990614089565b80601f01602080910402602001604051908101604052809291908181526020018280546133a590614089565b80156133f05780601f106133c7576101008083540402835291602001916133f0565b820191905f5260205f20905b8154815290600101906020018083116133d357829003601f168201915b505050505090806003015f9054906101000a900473ffffffffffffffffffffffffffffffffffffffff16908060050154905085565b61342d613502565b5f73ffffffffffffffffffffffffffffffffffffffff168173ffffffffffffffffffffffffffffffffffffffff160361349b576040517f08c379a000000000000000000000000000000000000000000000000000000000815260040161349290614980565b60405180910390fd5b6134a481613580565b50565b5f33905090565b5f81836134bb91906149cb565b905092915050565b5f81836134d09190614a39565b905092915050565b5f81836134e59190614a69565b905092915050565b5f81836134fa9190614a9c565b905092915050565b61350a6134a7565b73ffffffffffffffffffffffffffffffffffffffff16613528612c08565b73ffffffffffffffffffffffffffffffffffffffff161461357e576040517f08c379a000000000000000000000000000000000000000000000000000000000815260040161357590614b19565b60405180910390fd5b565b5f805f9054906101000a900473ffffffffffffffffffffffffffffffffffffffff169050815f806101000a81548173ffffffffffffffffffffffffffffffffffffffff021916908373ffffffffffffffffffffffffffffffffffffffff1602179055508173ffffffffffffffffffffffffffffffffffffffff168173ffffffffffffffffffffffffffffffffffffffff167f8be0079c531659141344cd1fd0a4f28419497f9722a3daafe3b4186f6b6457e060405160405180910390a35050565b50805461364d90614089565b5f825580601f1061365e575061367b565b601f0160209004905f5260205f209081019061367a919061367e565b5b50565b5b80821115613695575f815f90555060010161367f565b5090565b5f604051905090565b5f80fd5b5f80fd5b5f80fd5b5f80fd5b5f601f19601f8301169050919050565b7f4e487b71000000000000000000000000000000000000000000000000000000005f52604160045260245ffd5b6136f8826136b2565b810181811067ffffffffffffffff82111715613717576137166136c2565b5b80604052505050565b5f613729613699565b905061373582826136ef565b919050565b5f67ffffffffffffffff821115613754576137536136c2565b5b61375d826136b2565b9050602081019050919050565b828183375f83830152505050565b5f61378a6137858461373a565b613720565b9050828152602081018484840111156137a6576137a56136ae565b5b6137b184828561376a565b509392505050565b5f82601f8301126137cd576137cc6136aa565b5b81356137dd848260208601613778565b91505092915050565b5f805f80608085870312156137fe576137fd6136a2565b5b5f85013567ffffffffffffffff81111561381b5761381a6136a6565b5b613827878288016137b9565b945050602085013567ffffffffffffffff811115613848576138476136a6565b5b613854878288016137b9565b935050604085013567ffffffffffffffff811115613875576138746136a6565b5b613881878288016137b9565b925050606085013567ffffffffffffffff8111156138a2576138a16136a6565b5b6138ae878288016137b9565b91505092959194509250565b5f73ffffffffffffffffffffffffffffffffffffffff82169050919050565b5f6138e3826138ba565b9050919050565b6138f3816138d9565b81146138fd575f80fd5b50565b5f8135905061390e816138ea565b92915050565b5f806040838503121561392a576139296136a2565b5b5f61393785828601613900565b925050602083013567ffffffffffffffff811115613958576139576136a6565b5b613964858286016137b9565b9150509250929050565b5f81519050919050565b5f82825260208201905092915050565b5f5b838110156139a557808201518184015260208101905061398a565b5f8484015250505050565b5f6139ba8261396e565b6139c48185613978565b93506139d4818560208601613988565b6139dd816136b2565b840191505092915050565b6139f1816138d9565b82525050565b5f819050919050565b613a09816139f7565b82525050565b5f60a0820190508181035f830152613a2781886139b0565b90508181036020830152613a3b81876139b0565b90508181036040830152613a4f81866139b0565b9050613a5e60608301856139e8565b613a6b6080830184613a00565b9695505050505050565b5f8060408385031215613a8b57613a8a6136a2565b5b5f83013567ffffffffffffffff811115613aa857613aa76136a6565b5b613ab4858286016137b9565b9250506020613ac585828601613900565b9150509250929050565b5f8115159050919050565b613ae381613acf565b82525050565b5f602082019050613afc5f830184613ada565b92915050565b613b0b816139f7565b8114613b15575f80fd5b50565b5f81359050613b2681613b02565b92915050565b5f60208284031215613b4157613b406136a2565b5b5f613b4e84828501613b18565b91505092915050565b5f60208284031215613b6c57613b6b6136a2565b5b5f82013567ffffffffffffffff811115613b8957613b886136a6565b5b613b95848285016137b9565b91505092915050565b5f602082019050613bb15f830184613a00565b92915050565b5f805f8060808587031215613bcf57613bce6136a2565b5b5f85013567ffffffffffffffff811115613bec57613beb6136a6565b5b613bf8878288016137b9565b945050602085013567ffffffffffffffff811115613c1957613c186136a6565b5b613c25878288016137b9565b935050604085013567ffffffffffffffff811115613c4657613c456136a6565b5b613c52878288016137b9565b9250506060613c6387828801613b18565b91505092959194509250565b5f60a082019050613c825f8301886139e8565b8181036020830152613c9481876139b0565b90508181036040830152613ca881866139b0565b90508181036060830152613cbc81856139b0565b9050613ccb6080830184613a00565b9695505050505050565b5f602082019050613ce85f8301846139e8565b92915050565b5f60208284031215613d0357613d026136a2565b5b5f613d1084828501613900565b91505092915050565b5f81905092915050565b5f613d2d8261396e565b613d378185613d19565b9350613d47818560208601613988565b80840191505092915050565b5f613d5e8284613d23565b915081905092915050565b7f4f7267616e697a6174696f6e206b657920646f6573206e6f742065786973742e5f82015250565b5f613d9d602083613978565b9150613da882613d69565b602082019050919050565b5f6020820190508181035f830152613dca81613d91565b9050919050565b7f4d656d626572206163636f756e7420616c7265616479206578697374732e00005f82015250565b5f613e05601e83613978565b9150613e1082613dd1565b602082019050919050565b5f6020820190508181035f830152613e3281613df9565b9050919050565b7f4d696e696d756d207472616e73616374696f6e206e6f74206d657400000000005f82015250565b5f613e6d601b83613978565b9150613e7882613e39565b602082019050919050565b5f6020820190508181035f830152613e9a81613e61565b9050919050565b7f4e6f7420656e6f756768204554482073656e7420666f722061206461792e00005f82015250565b5f613ed5601e83613978565b9150613ee082613ea1565b602082019050919050565b5f6020820190508181035f830152613f0281613ec9565b9050919050565b7f4d6178696d756d20646179732065786365656465642e20596f752063616e27745f8201527f2073756273637269626520666f72206d6f7265207468616e206120796561722e602082015250565b5f613f63604083613978565b9150613f6e82613f09565b604082019050919050565b5f6020820190508181035f830152613f9081613f57565b9050919050565b5f6080820190508181035f830152613faf81876139b0565b90508181036020830152613fc381866139b0565b90508181036040830152613fd781856139b0565b9050613fe66060830184613a00565b95945050505050565b5f60a0820190508181035f83015261400781886139b0565b9050818103602083015261401b81876139b0565b9050818103604083015261402f81866139b0565b905061403e6060830185613a00565b818103608083015261405081846139b0565b90509695505050505050565b7f4e487b71000000000000000000000000000000000000000000000000000000005f52602260045260245ffd5b5f60028204905060018216806140a057607f821691505b6020821081036140b3576140b261405c565b5b50919050565b5f819050815f5260205f209050919050565b5f6020601f8301049050919050565b5f82821b905092915050565b5f600883026141157fffffffffffffffffffffffffffffffffffffffffffffffffffffffffffffffff826140da565b61411f86836140da565b95508019841693508086168417925050509392505050565b5f819050919050565b5f61415a614155614150846139f7565b614137565b6139f7565b9050919050565b5f819050919050565b61417383614140565b61418761417f82614161565b8484546140e6565b825550505050565b5f90565b61419b61418f565b6141a681848461416a565b505050565b5b818110156141c9576141be5f82614193565b6001810190506141ac565b5050565b601f82111561420e576141df816140b9565b6141e8846140cb565b810160208510156141f7578190505b61420b614203856140cb565b8301826141ab565b50505b505050565b5f82821c905092915050565b5f61422e5f1984600802614213565b1980831691505092915050565b5f614246838361421f565b9150826002028217905092915050565b61425f8261396e565b67ffffffffffffffff811115614278576142776136c2565b5b6142828254614089565b61428d8282856141cd565b5f60209050601f8311600181146142be575f84156142ac578287015190505b6142b6858261423b565b86555061431d565b601f1984166142cc866140b9565b5f5b828110156142f3578489015182556001820191506020850194506020810190506142ce565b86831015614310578489015161430c601f89168261421f565b8355505b6001600288020188555050505b505050505050565b7f4f7267616e697a6174696f6e206e6f7420666f756e642e0000000000000000005f82015250565b5f614359601783613978565b915061436482614325565b602082019050919050565b5f6020820190508181035f8301526143868161434d565b9050919050565b7f4e6f7420617574686f72697a65640000000000000000000000000000000000005f82015250565b5f6143c1600e83613978565b91506143cc8261438d565b602082019050919050565b5f6020820190508181035f8301526143ee816143b5565b9050919050565b5f6060820190508181035f83015261440d81866139b0565b9050818103602083015261442181856139b0565b9050818103604083015261443581846139b0565b9050949350505050565b5f815461444b81614089565b6144558186613978565b9450600182165f811461446f5760018114614485576144b7565b60ff1983168652811515602002860193506144b7565b61448e856140b9565b5f5b838110156144af57815481890152600182019150602081019050614490565b808801955050505b50505092915050565b5f60a0820190508181035f8301526144d8818861443f565b905081810360208301526144ec818761443f565b90508181036040830152614500818661443f565b905061450f6060830185613a00565b818103608083015261452181846139b0565b90509695505050505050565b7f4e616d652069732072657175697265642e0000000000000000000000000000005f82015250565b5f614561601183613978565b915061456c8261452d565b602082019050919050565b5f6020820190508181035f83015261458e81614555565b9050919050565b7f4b65792069732072657175697265642e000000000000000000000000000000005f82015250565b5f6145c9601083613978565b91506145d482614595565b602082019050919050565b5f6020820190508181035f8301526145f6816145bd565b9050919050565b7f537570706f72742055524c2069732072657175697265642e00000000000000005f82015250565b5f614631601883613978565b915061463c826145fd565b602082019050919050565b5f6020820190508181035f83015261465e81614625565b9050919050565b7f4d696e696d756d20726571756972656420707269636520706572206d6f6e74685f8201527f206e6f74206d6574000000000000000000000000000000000000000000000000602082015250565b5f6146bf602883613978565b91506146ca82614665565b604082019050919050565b5f6020820190508181035f8301526146ec816146b3565b9050919050565b7f4f7267616e697a6174696f6e206b657920616c7265616479206578697374732e5f82015250565b5f614727602083613978565b9150614732826146f3565b602082019050919050565b5f6020820190508181035f8301526147548161471b565b9050919050565b7f4d656d626572206163636f756e74206e6f7420666f756e642e000000000000005f82015250565b5f61478f601983613978565b915061479a8261475b565b602082019050919050565b5f6020820190508181035f8301526147bc81614783565b9050919050565b7f4f6e6c7920746865206d616e6167657220686173207065726d697373696f6e205f8201527f746f206564697420616e206f7267616e697a6174696f6e2e0000000000000000602082015250565b5f61481d603883613978565b9150614828826147c3565b604082019050919050565b5f6020820190508181035f83015261484a81614811565b9050919050565b5f819050919050565b5f61487461486f61486a84614851565b614137565b6139f7565b9050919050565b6148848161485a565b82525050565b5f60a0820190508181035f8301526148a2818861443f565b905081810360208301526148b6818761443f565b905081810360408301526148ca818661443f565b90506148d960608301856139e8565b6148e6608083018461487b565b9695505050505050565b5f6020820190508181035f83015261490881846139b0565b905092915050565b7f4f776e61626c653a206e6577206f776e657220697320746865207a65726f20615f8201527f6464726573730000000000000000000000000000000000000000000000000000602082015250565b5f61496a602683613978565b915061497582614910565b604082019050919050565b5f6020820190508181035f8301526149978161495e565b9050919050565b7f4e487b71000000000000000000000000000000000000000000000000000000005f52601160045260245ffd5b5f6149d5826139f7565b91506149e0836139f7565b92508282026149ee816139f7565b91508282048414831517614a0557614a0461499e565b5b5092915050565b7f4e487b71000000000000000000000000000000000000000000000000000000005f52601260045260245ffd5b5f614a43826139f7565b9150614a4e836139f7565b925082614a5e57614a5d614a0c565b5b828204905092915050565b5f614a73826139f7565b9150614a7e836139f7565b9250828201905080821115614a9657614a9561499e565b5b92915050565b5f614aa6826139f7565b9150614ab1836139f7565b9250828203905081811115614ac957614ac861499e565b5b92915050565b7f4f776e61626c653a2063616c6c6572206973206e6f7420746865206f776e65725f82015250565b5f614b03602083613978565b9150614b0e82614acf565b602082019050919050565b5f6020820190508181035f830152614b3081614af7565b905091905056fea2646970667358221220417e21d1ebf7f97620eced83af6a8566c35c9b71089b2f5c07c430084b6f0bd664736f6c63430008150033",
  "immutableReferences": {},
  "source": "// SPDX-License-Identifier: MIT\npragma solidity >=0.4.22 <0.9.0;\n\nimport \"@openzeppelin/contracts/access/Ownable.sol\";\nimport \"@openzeppelin/contracts/utils/math/SafeMath.sol\";\n\ncontract Organization is Ownable {\n    using SafeMath for uint256;\n\n    // Values\n    uint256 public MIN_MONTHLY_TRANSACTION = 591666666666666 wei;\n    uint256 public MAX_DAYS = 365;\n    uint256 private COMMISSION_RATE = 1000; // 0.1% commission rate\n    uint256 private MIN_PRICE_PER_DAY = MIN_MONTHLY_TRANSACTION.div(30);\n\n    // Orgnization events\n    event OrganizationAdded(string name, string key, string supportUrl, address manager, uint256 pricePerDay);\n    event OrganizationEdited(string name, string key, string supportUrl, address manager, uint256 pricePerDay);\n    event OrganizationDeleted(string key);\n    event OrganizationSaved(string name, string key, string supportUrl, address manager, uint256 pricePerDay);\n\n    // Member account events\n    event MemberAccountAdded(\n        address indexed userAddress,\n        string userName,\n        string imgUrl,\n        string description,\n        uint256 expirationDate\n    );\n    event MemberAccountEdited(address indexed userAddress, string userName, string imgUrl, string description);\n    event MemberAccountDeleted(address indexed userAddress);\n    event MemberAccountSaved(\n        address indexed userAddress,\n        string userName,\n        string imgUrl,\n        string description,\n        uint256 expirationDate,\n        string organizationKey\n    );\n\n    // Transaction events\n    event Transfer(address indexed from, address indexed to, uint256 value);\n\n    // Structs\n    struct MemberAccount {\n        address userAddress;\n        string userName;\n        string imgUrl;\n        string description;\n        uint256 expirationDate;\n    }\n    struct OrganizationData {\n        string name;\n        string key;\n        string supportUrl;\n        address manager;\n        mapping(address => MemberAccount) accounts;\n        uint256 pricePerDay;\n    }\n\n    mapping(string => OrganizationData) public organizations;\n\n    // Modifiers\n    modifier organizationNotNull(string memory _key) {\n        require(organizations[_key].manager != address(0), \"Organization key does not exist.\");\n        _;\n    }\n\n    modifier organizationManager(string memory _key) {\n        require(\n            organizations[_key].manager == _msgSender(),\n            \"Only the manager has permission to edit an organization.\"\n        );\n        _;\n    }\n\n    modifier accountOwner(string memory _key) {\n        require(organizations[_key].accounts[_msgSender()].userAddress == _msgSender(), \"Not authorized\");\n        _;\n    }\n\n    modifier validateOrganizationParams(\n        string memory _name,\n        string memory _key,\n        string memory _supportUrl\n    ) {\n        require(bytes(_name).length > 0, \"Name is required.\");\n        require(bytes(_key).length > 0, \"Key is required.\");\n        require(bytes(_supportUrl).length > 0, \"Support URL is required.\");\n        _;\n    }\n\n    modifier memberAccountAlreadyExists(string memory _key) {\n        require(\n            organizations[_key].accounts[_msgSender()].userAddress != _msgSender(),\n            \"Member account already exists.\"\n        );\n        _;\n    }\n\n    modifier minTransaction(uint256 _amount) {\n        require(_amount >= MIN_MONTHLY_TRANSACTION, \"Minimum transaction not met\");\n        _;\n    }\n\n    modifier minPricePerDay(uint256 _pricePerDay) {\n        require(_pricePerDay >= MIN_PRICE_PER_DAY, \"Minimum required price per month not met\");\n        _;\n    }\n\n    modifier transactionRangeForAccount(string memory _key) {\n        require(msg.value >= MIN_PRICE_PER_DAY, \"Minimum transaction not met\");\n        require(msg.value >= organizations[_key].pricePerDay, \"Not enough ETH sent for a day.\");\n        require(\n            msg.value <= organizations[_key].pricePerDay.mul(MAX_DAYS),\n            \"Maximum days exceeded. You can't subscribe for more than a year.\"\n        );\n        _;\n    }\n\n    // View Functions\n    function getOrganizationByManagerAndKey(\n        address _manager,\n        string memory _key\n    ) public view organizationNotNull(_key) returns (string memory, string memory, string memory, address, uint256) {\n        require(organizations[_key].manager == _manager, \"Organization not found.\");\n        return (\n            organizations[_key].name,\n            organizations[_key].key,\n            organizations[_key].supportUrl,\n            organizations[_key].manager,\n            organizations[_key].pricePerDay\n        );\n    }\n\n    function getAccountByOrganizationAndUserAddress(\n        string memory _organizationKey,\n        address _userAddress\n    )\n        public\n        view\n        organizationNotNull(_organizationKey)\n        returns (address, string memory, string memory, string memory, uint256)\n    {\n        require(\n            organizations[_organizationKey].accounts[_userAddress].userAddress == _userAddress,\n            \"Member account not found.\"\n        );\n        return (\n            organizations[_organizationKey].accounts[_userAddress].userAddress,\n            organizations[_organizationKey].accounts[_userAddress].userName,\n            organizations[_organizationKey].accounts[_userAddress].imgUrl,\n            organizations[_organizationKey].accounts[_userAddress].description,\n            organizations[_organizationKey].accounts[_userAddress].expirationDate\n        );\n    }\n\n    // Edit Functions\n    function addOrganization(\n        string memory _name,\n        string memory _key,\n        string memory _supportUrl,\n        uint256 _pricePerDay\n    ) public validateOrganizationParams(_name, _key, _supportUrl) minPricePerDay(_pricePerDay) {\n        require(organizations[_key].manager == address(0), \"Organization key already exists.\");\n        emit OrganizationAdded(_name, _key, _supportUrl, _msgSender(), _pricePerDay);\n        emit OrganizationSaved(_name, _key, _supportUrl, _msgSender(), _pricePerDay);\n        organizations[_key].name = _name;\n        organizations[_key].key = _key;\n        organizations[_key].supportUrl = _supportUrl;\n        organizations[_key].manager = _msgSender();\n        organizations[_key].pricePerDay = _pricePerDay;\n    }\n\n    function editOrganization(\n        string memory _key,\n        string memory _name,\n        string memory _supportUrl,\n        uint256 _pricePerDay\n    ) public organizationNotNull(_key) organizationManager(_key) minPricePerDay(_pricePerDay) {\n        emit OrganizationEdited(_name, _key, _supportUrl, _msgSender(), _pricePerDay);\n        emit OrganizationSaved(_name, _key, _supportUrl, _msgSender(), _pricePerDay);\n        organizations[_key].name = _name;\n        organizations[_key].supportUrl = _supportUrl;\n        organizations[_key].manager = _msgSender();\n        organizations[_key].pricePerDay = _pricePerDay;\n    }\n\n    function deleteOrganization(string memory _key) public organizationNotNull(_key) organizationManager(_key) {\n        emit OrganizationSaved(\n            organizations[_key].name,\n            organizations[_key].key,\n            organizations[_key].supportUrl,\n            _msgSender(),\n            0\n        );\n        emit OrganizationDeleted(_key);\n        delete organizations[_key];\n    }\n\n    function addAccount(\n        string memory _organizationKey,\n        string memory _userName,\n        string memory _imgUrl,\n        string memory _description\n    )\n        public\n        payable\n        organizationNotNull(_organizationKey)\n        memberAccountAlreadyExists(_organizationKey)\n        transactionRangeForAccount(_organizationKey)\n    {\n        uint256 pricePerDay = organizations[_organizationKey].pricePerDay;\n        uint256 availableDays = msg.value.div(pricePerDay);\n        uint256 expirationDate = block.timestamp.add(availableDays.mul(1 days));\n        emit MemberAccountAdded(_msgSender(), _userName, _imgUrl, _description, expirationDate);\n        emit MemberAccountSaved(_msgSender(), _userName, _imgUrl, _description, expirationDate, _organizationKey);\n        emit Transfer(_msgSender(), owner(), msg.value.div(1000));\n        emit Transfer(_msgSender(), organizations[_organizationKey].manager, msg.value.sub(msg.value.div(1000)));\n        organizations[_organizationKey].accounts[_msgSender()].userAddress = _msgSender();\n        organizations[_organizationKey].accounts[_msgSender()].userName = _userName;\n        organizations[_organizationKey].accounts[_msgSender()].imgUrl = _imgUrl;\n        organizations[_organizationKey].accounts[_msgSender()].description = _description;\n        organizations[_organizationKey].accounts[_msgSender()].expirationDate = expirationDate;\n        payable(owner()).transfer(msg.value.div(1000));\n        payable(organizations[_organizationKey].manager).transfer(msg.value.sub(msg.value.div(1000)));\n    }\n\n    function addAmountToAccount(\n        string memory _organizationKey\n    )\n        public\n        payable\n        organizationNotNull(_organizationKey)\n        accountOwner(_organizationKey)\n        transactionRangeForAccount(_organizationKey)\n    {\n        uint256 pricePerDay = organizations[_organizationKey].pricePerDay;\n        uint256 availableDays = msg.value.div(pricePerDay);\n        uint256 expirationDate = organizations[_organizationKey].accounts[_msgSender()].expirationDate.add(\n            availableDays.mul(1 days)\n        );\n        require(\n            expirationDate <= block.timestamp.add(MAX_DAYS.mul(1 days)),\n            \"Maximum days exceeded. You can't subscribe for more than a year.\"\n        );\n        organizations[_organizationKey].accounts[_msgSender()].expirationDate = expirationDate;\n        emit Transfer(_msgSender(), owner(), msg.value.div(1000));\n        emit Transfer(_msgSender(), organizations[_organizationKey].manager, msg.value.sub(msg.value.div(1000)));\n        emit MemberAccountSaved(\n            _msgSender(),\n            organizations[_organizationKey].accounts[_msgSender()].userName,\n            organizations[_organizationKey].accounts[_msgSender()].imgUrl,\n            organizations[_organizationKey].accounts[_msgSender()].description,\n            expirationDate,\n            _organizationKey\n        );\n        payable(owner()).transfer(msg.value.div(1000));\n        payable(organizations[_organizationKey].manager).transfer(msg.value.sub(msg.value.div(1000)));\n    }\n\n    function editAccount(\n        string memory _organizationKey,\n        string memory _userName,\n        string memory _imgUrl,\n        string memory _description\n    ) public organizationNotNull(_organizationKey) accountOwner(_organizationKey) {\n        emit MemberAccountEdited(_msgSender(), _userName, _imgUrl, _description);\n        emit MemberAccountSaved(\n            _msgSender(),\n            _userName,\n            _imgUrl,\n            _description,\n            organizations[_organizationKey].accounts[_msgSender()].expirationDate,\n            _organizationKey\n        );\n        organizations[_organizationKey].accounts[_msgSender()].userName = _userName;\n        organizations[_organizationKey].accounts[_msgSender()].imgUrl = _imgUrl;\n        organizations[_organizationKey].accounts[_msgSender()].description = _description;\n    }\n\n    function isAccountCertificateValid(\n        string memory _organizationKey,\n        address _accountAddress\n    ) public view organizationNotNull(_organizationKey) returns (bool) {\n        return organizations[_organizationKey].accounts[_accountAddress].expirationDate > block.timestamp;\n    }\n\n    function deleteMyAccount(\n        string memory _organizationKey\n    ) public organizationNotNull(_organizationKey) accountOwner(_organizationKey) {\n        emit MemberAccountDeleted(_msgSender());\n        emit MemberAccountSaved(\n            _msgSender(),\n            organizations[_organizationKey].accounts[_msgSender()].userName,\n            organizations[_organizationKey].accounts[_msgSender()].imgUrl,\n            organizations[_organizationKey].accounts[_msgSender()].description,\n            block.timestamp,\n            _organizationKey\n        );\n        delete organizations[_organizationKey].accounts[_msgSender()];\n    }\n\n    function editMinTransaction(uint256 _minTransactionValue) public onlyOwner {\n        MIN_MONTHLY_TRANSACTION = _minTransactionValue;\n    }\n\n    function editMaxDays(uint256 _maxDaysValue) public onlyOwner {\n        MAX_DAYS = _maxDaysValue;\n    }\n\n    // Backup Functions\n    function exportExceed() public onlyOwner {\n        payable(owner()).transfer(address(this).balance);\n    }\n}\n",
  "sourcePath": "/Users/raphaeletang-sale/Projects/ChainBrary/SmartContracts/contracts/Organization.sol",
  "compiler": {
    "name": "solc",
    "version": "0.8.21+commit.d9974bed.Emscripten.clang"
  },
  "schemaVersion": "3.4.16",
  "updatedAt": "2023-10-11T00:10:43.394Z",
  "networkType": "ethereum",
  "devdoc": {
    "kind": "dev",
    "methods": {
      "owner()": {
        "details": "Returns the address of the current owner."
      },
      "renounceOwnership()": {
        "details": "Leaves the contract without owner. It will not be possible to call `onlyOwner` functions. Can only be called by the current owner. NOTE: Renouncing ownership will leave the contract without an owner, thereby disabling any functionality that is only available to the owner."
      },
      "transferOwnership(address)": {
        "details": "Transfers ownership of the contract to a new account (`newOwner`). Can only be called by the current owner."
      }
    },
    "version": 1
  },
  "userdoc": {
    "kind": "user",
    "methods": {},
    "version": 1
  }
}