{
  "contractName": "PriceFeed",
  "abi": [
    {
      "inputs": [
        {
          "internalType": "address",
          "name": "aggregator",
          "type": "address"
        }
      ],
      "name": "getLatestDataFrom",
      "outputs": [
        {
          "internalType": "uint80",
          "name": "roundId",
          "type": "uint80"
        },
        {
          "internalType": "int256",
          "name": "answer",
          "type": "int256"
        },
        {
          "internalType": "uint256",
          "name": "startedAt",
          "type": "uint256"
        },
        {
          "internalType": "uint256",
          "name": "updatedAt",
          "type": "uint256"
        },
        {
          "internalType": "uint80",
          "name": "answeredInRound",
          "type": "uint80"
        }
      ],
      "stateMutability": "view",
      "type": "function",
      "constant": true
    }
  ],
  "bytecode": "0x608060405234801561000f575f80fd5b506103448061001d5f395ff3fe608060405234801561000f575f80fd5b5060043610610029575f3560e01c8063a88ac4631461002d575b5f80fd5b61004760048036038101906100429190610149565b610061565b6040516100589594939291906101c8565b60405180910390f35b5f805f805f808690508073ffffffffffffffffffffffffffffffffffffffff1663feaf968c6040518163ffffffff1660e01b815260040160a060405180830381865afa1580156100b3573d5f803e3d5ffd5b505050506040513d601f19601f820116820180604052508101906100d79190610297565b955095509550955095505091939590929450565b5f80fd5b5f73ffffffffffffffffffffffffffffffffffffffff82169050919050565b5f610118826100ef565b9050919050565b6101288161010e565b8114610132575f80fd5b50565b5f813590506101438161011f565b92915050565b5f6020828403121561015e5761015d6100eb565b5b5f61016b84828501610135565b91505092915050565b5f69ffffffffffffffffffff82169050919050565b61019281610174565b82525050565b5f819050919050565b6101aa81610198565b82525050565b5f819050919050565b6101c2816101b0565b82525050565b5f60a0820190506101db5f830188610189565b6101e860208301876101a1565b6101f560408301866101b9565b61020260608301856101b9565b61020f6080830184610189565b9695505050505050565b61022281610174565b811461022c575f80fd5b50565b5f8151905061023d81610219565b92915050565b61024c81610198565b8114610256575f80fd5b50565b5f8151905061026781610243565b92915050565b610276816101b0565b8114610280575f80fd5b50565b5f815190506102918161026d565b92915050565b5f805f805f60a086880312156102b0576102af6100eb565b5b5f6102bd8882890161022f565b95505060206102ce88828901610259565b94505060406102df88828901610283565b93505060606102f088828901610283565b92505060806103018882890161022f565b915050929550929590935056fea2646970667358221220b411484a028510f8258ebf7d6cd2d28df5ab6281f539fa580e8eef8ec0a09be464736f6c63430008150033",
  "immutableReferences": {},
  "source": "// SPDX-License-Identifier: MIT\npragma solidity >=0.4.22 <0.9.0;\n\nimport \"@chainlink/contracts/src/v0.8/interfaces/AggregatorV3Interface.sol\";\n\ncontract PriceFeed {\n    /**\n     * Returns the latest answer from the specified aggregator.\n     */\n    function getLatestDataFrom(\n        address aggregator\n    )\n        public\n        view\n        returns (uint80 roundId, int256 answer, uint256 startedAt, uint256 updatedAt, uint80 answeredInRound)\n    {\n        AggregatorV3Interface dataFeed = AggregatorV3Interface(aggregator);\n        return dataFeed.latestRoundData();\n    }\n}\n",
  "sourcePath": "/Users/raphaeletang-sale/Projects/ChainBrary/SmartContracts/contracts/PriceFeed.sol",
  "compiler": {
    "name": "solc",
    "version": "0.8.21+commit.d9974bed.Emscripten.clang"
  },
  "schemaVersion": "3.4.16",
  "updatedAt": "2023-10-11T21:40:35.721Z",
  "networkType": "ethereum",
  "devdoc": {
    "kind": "dev",
    "methods": {},
    "version": 1
  },
  "userdoc": {
    "kind": "user",
    "methods": {
      "getLatestDataFrom(address)": {
        "notice": "Returns the latest answer from the specified aggregator."
      }
    },
    "version": 1
  }
}