{
  "contractName": "TransactionBridge",
  "abi": [
    {
      "anonymous": false,
      "inputs": [
        {
          "indexed": true,
          "internalType": "address",
          "name": "previousOwner",
          "type": "address"
        },
        {
          "indexed": true,
          "internalType": "address",
          "name": "newOwner",
          "type": "address"
        }
      ],
      "name": "OwnershipTransferred",
      "type": "event"
    },
    {
      "anonymous": false,
      "inputs": [
        {
          "indexed": true,
          "internalType": "address",
          "name": "from",
          "type": "address"
        },
        {
          "indexed": true,
          "internalType": "address",
          "name": "to",
          "type": "address"
        },
        {
          "indexed": false,
          "internalType": "uint256",
          "name": "value",
          "type": "uint256"
        },
        {
          "indexed": false,
          "internalType": "uint256",
          "name": "fee",
          "type": "uint256"
        }
      ],
      "name": "Transfer",
      "type": "event"
    },
    {
      "inputs": [],
      "name": "MAX_RECIPIENTS",
      "outputs": [
        {
          "internalType": "uint256",
          "name": "",
          "type": "uint256"
        }
      ],
      "stateMutability": "view",
      "type": "function",
      "constant": true
    },
    {
      "inputs": [],
      "name": "feeRate",
      "outputs": [
        {
          "internalType": "uint256",
          "name": "",
          "type": "uint256"
        }
      ],
      "stateMutability": "view",
      "type": "function",
      "constant": true
    },
    {
      "inputs": [],
      "name": "owner",
      "outputs": [
        {
          "internalType": "address",
          "name": "",
          "type": "address"
        }
      ],
      "stateMutability": "view",
      "type": "function",
      "constant": true
    },
    {
      "inputs": [],
      "name": "renounceOwnership",
      "outputs": [],
      "stateMutability": "nonpayable",
      "type": "function"
    },
    {
      "inputs": [
        {
          "internalType": "address",
          "name": "newOwner",
          "type": "address"
        }
      ],
      "name": "transferOwnership",
      "outputs": [],
      "stateMutability": "nonpayable",
      "type": "function"
    },
    {
      "inputs": [
        {
          "internalType": "address payable[]",
          "name": "recipients",
          "type": "address[]"
        }
      ],
      "name": "transferFund",
      "outputs": [],
      "stateMutability": "payable",
      "type": "function",
      "payable": true
    }
  ],
  "bytecode": "0x60806040526103e8600255348015610015575f80fd5b5061003261002761003e60201b60201c565b61004560201b60201c565b60018081905550610106565b5f33905090565b5f805f9054906101000a900473ffffffffffffffffffffffffffffffffffffffff169050815f806101000a81548173ffffffffffffffffffffffffffffffffffffffff021916908373ffffffffffffffffffffffffffffffffffffffff1602179055508173ffffffffffffffffffffffffffffffffffffffff168173ffffffffffffffffffffffffffffffffffffffff167f8be0079c531659141344cd1fd0a4f28419497f9722a3daafe3b4186f6b6457e060405160405180910390a35050565b610f4a806101135f395ff3fe608060405260043610610054575f3560e01c806363fa0b0c14610058578063715018a6146100745780638da5cb5b1461008a578063978bbdb9146100b4578063a6980ce2146100de578063f2fde38b14610108575b5f80fd5b610072600480360381019061006d91906108d4565b610130565b005b34801561007f575f80fd5b5061008861044b565b005b348015610095575f80fd5b5061009e61045e565b6040516100ab919061093b565b60405180910390f35b3480156100bf575f80fd5b506100c8610485565b6040516100d5919061096c565b60405180910390f35b3480156100e9575f80fd5b506100f261048b565b6040516100ff919061096c565b60405180910390f35b348015610113575f80fd5b5061012e600480360381019061012991906109af565b610490565b005b610138610512565b5f815190505f8111801561014d575060648111155b61018c576040517f08c379a000000000000000000000000000000000000000000000000000000000815260040161018390610a5a565b60405180910390fd5b5f6101b7620186a06101a96002543461056190919063ffffffff16565b61057690919063ffffffff16565b90505f6101cd823461058b90919063ffffffff16565b90505f6101e3848361057690919063ffffffff16565b90505f6101f985846105a090919063ffffffff16565b90505f821161023d576040517f08c379a000000000000000000000000000000000000000000000000000000000815260040161023490610b0e565b60405180910390fd5b61024561045e565b73ffffffffffffffffffffffffffffffffffffffff166108fc8590811502906040515f60405180830381858888f19350505050158015610287573d5f803e3d5ffd5b505f5b8581101561043a575f73ffffffffffffffffffffffffffffffffffffffff168782815181106102bc576102bb610b2c565b5b602002602001015173ffffffffffffffffffffffffffffffffffffffff160361031a576040517f08c379a000000000000000000000000000000000000000000000000000000000815260040161031190610bc9565b60405180910390fd5b5f8390505f8214801561032c57505f83115b156103475761034483826105b590919063ffffffff16565b90505b87828151811061035a57610359610b2c565b5b602002602001015173ffffffffffffffffffffffffffffffffffffffff166108fc8290811502906040515f60405180830381858888f193505050501580156103a4573d5f803e3d5ffd5b508782815181106103b8576103b7610b2c565b5b602002602001015173ffffffffffffffffffffffffffffffffffffffff163373ffffffffffffffffffffffffffffffffffffffff167f9ed053bb818ff08b8353cd46f78db1f0799f31c9e4458fdb425c10eccd2efc44838960405161041e929190610be7565b60405180910390a350808061043290610c3b565b91505061028a565b5050505050506104486105ca565b50565b6104536105d3565b61045c5f610651565b565b5f805f9054906101000a900473ffffffffffffffffffffffffffffffffffffffff16905090565b60025481565b606481565b6104986105d3565b5f73ffffffffffffffffffffffffffffffffffffffff168173ffffffffffffffffffffffffffffffffffffffff1603610506576040517f08c379a00000000000000000000000000000000000000000000000000000000081526004016104fd90610cf2565b60405180910390fd5b61050f81610651565b50565b600260015403610557576040517f08c379a000000000000000000000000000000000000000000000000000000000815260040161054e90610d5a565b60405180910390fd5b6002600181905550565b5f818361056e9190610d78565b905092915050565b5f81836105839190610de6565b905092915050565b5f81836105989190610e16565b905092915050565b5f81836105ad9190610e49565b905092915050565b5f81836105c29190610e79565b905092915050565b60018081905550565b6105db610712565b73ffffffffffffffffffffffffffffffffffffffff166105f961045e565b73ffffffffffffffffffffffffffffffffffffffff161461064f576040517f08c379a000000000000000000000000000000000000000000000000000000000815260040161064690610ef6565b60405180910390fd5b565b5f805f9054906101000a900473ffffffffffffffffffffffffffffffffffffffff169050815f806101000a81548173ffffffffffffffffffffffffffffffffffffffff021916908373ffffffffffffffffffffffffffffffffffffffff1602179055508173ffffffffffffffffffffffffffffffffffffffff168173ffffffffffffffffffffffffffffffffffffffff167f8be0079c531659141344cd1fd0a4f28419497f9722a3daafe3b4186f6b6457e060405160405180910390a35050565b5f33905090565b5f604051905090565b5f80fd5b5f80fd5b5f80fd5b5f601f19601f8301169050919050565b7f4e487b71000000000000000000000000000000000000000000000000000000005f52604160045260245ffd5b6107748261072e565b810181811067ffffffffffffffff821117156107935761079261073e565b5b80604052505050565b5f6107a5610719565b90506107b1828261076b565b919050565b5f67ffffffffffffffff8211156107d0576107cf61073e565b5b602082029050602081019050919050565b5f80fd5b5f73ffffffffffffffffffffffffffffffffffffffff82169050919050565b5f61080e826107e5565b9050919050565b61081e81610804565b8114610828575f80fd5b50565b5f8135905061083981610815565b92915050565b5f61085161084c846107b6565b61079c565b90508083825260208201905060208402830185811115610874576108736107e1565b5b835b8181101561089d5780610889888261082b565b845260208401935050602081019050610876565b5050509392505050565b5f82601f8301126108bb576108ba61072a565b5b81356108cb84826020860161083f565b91505092915050565b5f602082840312156108e9576108e8610722565b5b5f82013567ffffffffffffffff81111561090657610905610726565b5b610912848285016108a7565b91505092915050565b5f610925826107e5565b9050919050565b6109358161091b565b82525050565b5f60208201905061094e5f83018461092c565b92915050565b5f819050919050565b61096681610954565b82525050565b5f60208201905061097f5f83018461095d565b92915050565b61098e8161091b565b8114610998575f80fd5b50565b5f813590506109a981610985565b92915050565b5f602082840312156109c4576109c3610722565b5b5f6109d18482850161099b565b91505092915050565b5f82825260208201905092915050565b7f5472616e73616374696f6e4272696467653a20496e76616c6964206e756d62655f8201527f72206f6620726563697069656e74730000000000000000000000000000000000602082015250565b5f610a44602f836109da565b9150610a4f826109ea565b604082019050919050565b5f6020820190508181035f830152610a7181610a38565b9050919050565b7f5472616e73616374696f6e4272696467653a20496e73756666696369656e74205f8201527f66756e64732073656e7420746f20636f766572207472616e736665727320616e60208201527f6420666565730000000000000000000000000000000000000000000000000000604082015250565b5f610af86046836109da565b9150610b0382610a78565b606082019050919050565b5f6020820190508181035f830152610b2581610aec565b9050919050565b7f4e487b71000000000000000000000000000000000000000000000000000000005f52603260045260245ffd5b7f5472616e73616374696f6e4272696467653a20726563697069656e742063616e5f8201527f6e6f7420626520746865207a65726f2061646472657373000000000000000000602082015250565b5f610bb36037836109da565b9150610bbe82610b59565b604082019050919050565b5f6020820190508181035f830152610be081610ba7565b9050919050565b5f604082019050610bfa5f83018561095d565b610c07602083018461095d565b9392505050565b7f4e487b71000000000000000000000000000000000000000000000000000000005f52601160045260245ffd5b5f610c4582610954565b91507fffffffffffffffffffffffffffffffffffffffffffffffffffffffffffffffff8203610c7757610c76610c0e565b5b600182019050919050565b7f4f776e61626c653a206e6577206f776e657220697320746865207a65726f20615f8201527f6464726573730000000000000000000000000000000000000000000000000000602082015250565b5f610cdc6026836109da565b9150610ce782610c82565b604082019050919050565b5f6020820190508181035f830152610d0981610cd0565b9050919050565b7f5265656e7472616e637947756172643a207265656e7472616e742063616c6c005f82015250565b5f610d44601f836109da565b9150610d4f82610d10565b602082019050919050565b5f6020820190508181035f830152610d7181610d38565b9050919050565b5f610d8282610954565b9150610d8d83610954565b9250828202610d9b81610954565b91508282048414831517610db257610db1610c0e565b5b5092915050565b7f4e487b71000000000000000000000000000000000000000000000000000000005f52601260045260245ffd5b5f610df082610954565b9150610dfb83610954565b925082610e0b57610e0a610db9565b5b828204905092915050565b5f610e2082610954565b9150610e2b83610954565b9250828203905081811115610e4357610e42610c0e565b5b92915050565b5f610e5382610954565b9150610e5e83610954565b925082610e6e57610e6d610db9565b5b828206905092915050565b5f610e8382610954565b9150610e8e83610954565b9250828201905080821115610ea657610ea5610c0e565b5b92915050565b7f4f776e61626c653a2063616c6c6572206973206e6f7420746865206f776e65725f82015250565b5f610ee06020836109da565b9150610eeb82610eac565b602082019050919050565b5f6020820190508181035f830152610f0d81610ed4565b905091905056fea2646970667358221220e76745357b87999b0a36da00f675fe0c7c6c73ce5b9f7ee21b129b2a97cca64064736f6c63430008150033",
  "immutableReferences": {},
  "source": "// SPDX-License-Identifier: MIT\npragma solidity >=0.4.22 <0.9.0;\n\nimport \"@openzeppelin/contracts/access/Ownable.sol\";\nimport \"@openzeppelin/contracts/utils/math/SafeMath.sol\";\nimport \"@openzeppelin/contracts/security/ReentrancyGuard.sol\";\n\ncontract TransactionBridge is Ownable, ReentrancyGuard {\n    using SafeMath for uint256;\n\n    uint256 public feeRate = 1000; // 1000 means 0.1% fee (1/1000)\n    uint256 public constant MAX_RECIPIENTS = 100; // Prevents too high gas cost\n\n    event Transfer(address indexed from, address indexed to, uint256 value, uint256 fee);\n\n    function transferFund(address payable[] memory recipients) external payable nonReentrant {\n        uint256 numOfRecipients = recipients.length;\n        require(\n            numOfRecipients > 0 && numOfRecipients <= MAX_RECIPIENTS,\n            \"TransactionBridge: Invalid number of recipients\"\n        );\n\n        uint256 fee = msg.value.mul(feeRate).div(100000);\n        uint256 totalAmount = msg.value.sub(fee);\n        uint256 amountPerRecipient = totalAmount.div(numOfRecipients);\n        uint256 remainder = totalAmount.mod(numOfRecipients);\n\n        require(amountPerRecipient > 0, \"TransactionBridge: Insufficient funds sent to cover transfers and fees\");\n\n        payable(owner()).transfer(fee);\n\n        for (uint256 i = 0; i < numOfRecipients; i++) {\n            require(recipients[i] != address(0), \"TransactionBridge: recipient cannot be the zero address\");\n            uint256 amountToTransfer = amountPerRecipient;\n            if (i == 0 && remainder > 0) {\n                amountToTransfer = amountToTransfer.add(remainder); // Add the remainder to the first recipient\n            }\n            recipients[i].transfer(amountToTransfer);\n            emit Transfer(msg.sender, recipients[i], amountToTransfer, fee);\n        }\n    }\n}",
  "sourcePath": "/Users/raphaeletang-sale/Projects/ChainBrary/SmartContracts/contracts/TransactionBridge.sol",
  "compiler": {
    "name": "solc",
    "version": "0.8.21+commit.d9974bed.Emscripten.clang"
  },
  "schemaVersion": "3.4.16",
  "updatedAt": "2023-10-11T00:10:43.401Z",
  "networkType": "ethereum",
  "devdoc": {
    "kind": "dev",
    "methods": {
      "owner()": {
        "details": "Returns the address of the current owner."
      },
      "renounceOwnership()": {
        "details": "Leaves the contract without owner. It will not be possible to call `onlyOwner` functions. Can only be called by the current owner. NOTE: Renouncing ownership will leave the contract without an owner, thereby disabling any functionality that is only available to the owner."
      },
      "transferOwnership(address)": {
        "details": "Transfers ownership of the contract to a new account (`newOwner`). Can only be called by the current owner."
      }
    },
    "version": 1
  },
  "userdoc": {
    "kind": "user",
    "methods": {},
    "version": 1
  }
}